:020000040000FA
:2000000000000420ED1B0000151C0000171C0000191C00001B1C00001D1C000000000000AB
:200020000000000000000000000000001F1C0000211C000000000000231C0000251C0000C8
:20004000A92E0000392B0000056000008D3B0000271C0000271C00002D320000271C000010
:200060009D460000271C0000271C000021350000271C000021340000271C0000271C0000A3
:20008000513C0000271C0000271C0000271C0000271C0000271C0000271C0000271C0000FE
:2000A000271C0000271C0000271C0000271C0000271C0000271C00000000000000000000AE
:2000C000271C0000271C0000271C0000271C0000271C0000271C0000271C0000271C000008
:2000E000271C0000271C0000271C00000000000000000000271C000000000000271C0000B1
:200100000000000000000000000000000000000000000000000000000000000000000000DF
:200120000000000000000000000000000000000000000000000000000000000000000000BF
:2001400000000000000000000000000000000000000000000000000000000000000000009F
:2001600000000000000000000000000000000000000000000000000000000000000000007F
:2001800000000000000000000000000000000000000000000000000000000000000000005F
:2001A00000000000000000000000000000000000000000000000000000000000000000003F
:2001C00000000000000000000000000000000000000000000000000000000000000000001F
:2001E0000000000000000000000000000000000000000000000000000000000000000000FF
:2002000001F0FF01102A2BDB10F0070F08D010F8013B013A8B422DD010F0070F42B3F6D1A4
:20022000F0B441EA012141EA014122F007047FF000070023F0E80256083C85EA010586EA51
:20024000010685FA47F5A3FA87F586FA47F6A5FA87F68EB9EED1F0BC01F0FF0102F007024C
:2002600032B110F8013B013A83EA010313B1F8D10020704701387047002D06BF35460338AF
:20028000073815F0010F07D1013015F4807F02BF013015F4C03F0130F0BC0138704700BF73
:2002A00010B5054C237833B9044B13B10448AFF300800123237010BDF80200200000000082
:2002C0005083000008B5034B1BB103490348AFF3008008BD00000000FC0200205083000005
:2002E000A3F5803A704700BF174B002B08BF134B9D46FFF7F5FF00218B460F461348144AB7
:20030000121A06F05FFF0E4B002B00D098470D4B002B00D098470020002104000D000D4851
:20032000002802D00C48AFF3008000F02BF82000290000F031FA00F011F800BF0000080016
:20034000000000000000000000000420F802002038270020000000000000000008B5074BD1
:20036000044613B10021AFF30080054B1868836A03B19847204600F029F800BF00000000A6
:200380000875000070B50D4D0D4C641BA4100026A64209D10B4D0C4C07F0A6F8641BA41075
:2003A0000026A64205D170BD55F8043B98470136EEE755F8043B98470136F2E7F002002028
:2003C000F0020020F0020020F4020020FEE700BF00B585B00346002101AA44F20100CDE953
:2003E0000111039300F004F805B05DF804FB00BF72B6094B1B68DB0700D500BEBFF34F8F9D
:200400000649074BCA6802F4E0621343CB60BFF34F8F00BFFDE700BFF0ED00E000ED00E0D4
:200420000400FA0572B6024A136801331360704714030020034A1368013B136003B962B6EA
:20044000704700BF1403002010B50446006830B1002103F059FF54F8040F0028F8D110BD0E
:2004600010B590F84C10094A013180F84C10044603468021203000F083FD054B224619783D
:20048000BDE81040002003F0D7BF00BF61040000212700202DE9F041038804463BB1B3F582
:2004A000867F0AD182290DD00120BDE8F0814FF4867323800120BDE8F081002303800320BE
:2004C000BDE8F08101F046FCBFF35F8F1649174B0E6800220A601F781A70FFB2BFF35F8FFE
:2004E000134D01F03BFC28680028E0D0DFF8448003E055F8040F0028D9D090F8463026FA3F
:2005000003F3DA07F5D590F8453047FA03F3DB07EFD500F05BFD0028EBD02B6842461846BC
:20052000022100F02DFDE4E728030020C4260020A40100209505000010B4094A094C136818
:200540001943116021780346012202FA03F30B43DBB2237004485DF8044B03F08FBF00BF79
:2005600028030020C4260020B801002010B5044690F8461090F8450001F0AAFB10B994F8A8
:20058000440010BD01280ABF94F84400002080F0010010BD70B5044600F018FD00B970BDD0
:2005A00004F12006304600F011FD05462046FFF7DDFF01280ED00028F1D1002DEFD13046D5
:2005C00000F0EAFC0D4B224628461978BDE8704003F032BF002DE2D0002530462346084A18
:2005E00084F84C507E2100F0CBFC064B284622461978BDE8704003F01FBF00BF2027002089
:200600006104000022270020F8B503F075FE304B304C187003F070FE2F4B304F187003F0A5
:200620006BFE2F4922682F4B08700025FF2139727B60FD60002A42D02B4E09E091F84600C8
:20064000F9683A72834054F8042F0B43FB60B2B392F8463092F84510926C03F01F0343EA1E
:2006600041131F2BC6BF03F01F0331464FF0A04103F5E07342F08C0241F82350236893F8DE
:20068000461093F8450001F0E1FA226892F8463092F8450003F01F0343EA4010012102F069
:2006A0001FFD2168387A91F8452082424FF00103C4D0FF28C2D054F8042F002AC8D10B480C
:2006C000002103F021FEBDE8F840044801F014BB22270020A401002020270020180300202E
:2006E000212700203905000000030050B801002030B5174B83B000221A6002F07BFA00BBF0
:20070000002002F093FA134B134A93E80300FF250090ADF80410062400231048ADF80050FA
:2007200069468DF802408DF8043002F08FFE58B901210A4802F0DEFE084802F0CFFE03B0F6
:2007400030BDFFF745FEDBE7FFF742FEF0E700BF2C0300205C7500008D0700006475000058
:20076000014B1868704700BF2C03002008B5064A13680133136000F0D5FE00B908BDBDE8D3
:20078000084000F0AFBE00BF2C030020042800D07047FFF7EBBF00BF10B54F4C03F0B8FC8D
:2007A000FFF7A6FF03F08AFF03F0D0FD4B48002103F0AAFD00F0AAFB05F044FC00F0DEFD7F
:2007C00004F072F803F0ACFC03F07AFE01F074FC01F084FC2368022B11DC03F0BDFC40480A
:2007E000FFF732FE05F058FC03F0CAFD044605F05BFC14F0FF0FF7D103F0BCFCF4E7394A57
:2008000039493A4803F0D2FC394803F04BFE2368022BE2DD334A3449344803F0C7FC354B33
:200820003548196803F0C2FC2368022BD5DD2D4A2D492E4803F0BAFC304B3148196803F02B
:20084000B5FC2368022BC8DD264A2749274803F0ADFC2C4B2C48196803F0A8FC2368022BE4
:20086000BBDD204A2049214803F0A0FC274841F2373103F09BFC2368022BAEDD194A1A4978
:200880001A4803F093FC22480F2103F08FFC2368022BA2DD134A1449144803F087FC1D4B31
:2008A0001D48198803F082FC2368022B95DD0D4A0D490E4803F07AFC184803F077FC2368DA
:2008C000022B8ADD164801F013FB2368022B84DD0A2003F0E1FD80E70C020020FC01002061
:2008E000787B00006C750000747500007C7500008C750000087C0000B0750000D87B00004D
:20090000C075000044760000CC750000D8750000F4750000BC2600201476000024760000CB
:20092000DC26002070B590F82D50012D04460FD91F2503F029FE0246B0FBF5F1234601FB6F
:20094000152104F10C00054ABDE8704000F018BBE91C01258D40013DEBE700BFED0900003C
:200960002DE9F04714460D468A6894F82C900646606BD2E9007801F093FA686803F0D6FDE5
:20098000A968164801F06EFB1548294601F06AFB606B01F055FA60B10023A3852046FFF7A9
:2009A000C1FF4B46324641463846BDE8F04701F01FBB04F10C0000F0EFFA2146094801F03F
:2009C0006FFA2146084801F04DFB4B46324641463846BDE8F04701F00BBB00BFC801002075
:2009E000E001002098030020D401002008B32DE9F047044682B0406B01F022FA0546A8B166
:200A0000406803F0A9FD63490D2003F065FB0121082003F053FB00F07DF900280ADAAB6859
:200A200023B1052022462946FFF79AFF02B0BDE8F087704703F098FADFF85C8190F802907F
:200A4000D8F8047003F090FA064603F097FA01463046B84703F054FBD8F818600746B0477B
:200A600070BB002F4AD1D8F81CA0D04740BBD8F8087003F083FAB84700285DD002281FD03E
:200A8000AB68002BD2D00420CCE703F0FBFD6FF028031E1A03E003F0F5FDC64202D5D04734
:200AA0000028F8D0D04700285ED0D8F81030032101A89847032803D19DF806304B4524D0CF
:200AC000AA68002AB2D094F82D300133DBB2052B84F82D3094F82C3008D8127A9A4224D879
:200AE000224629460120FFF73BFF9FE70133DBB2002184F82C3084F82D10EEE7D8F80860C8
:200B000003F03CFAB0470028B8D1AB68002B8DD094F82C3000200133294684F82C3084F86A
:200B20002D002246FFF71CFF80E72046FFF7FAFE686803F0F5FC79E703F0A4FD6FF018072E
:200B40003F1A03E003F09EFDC74202D5D0470028F8D0B047002898D1D047002895D1D8F8E7
:200B600014309847002890D0A96800293FF45EAF94F82C300133DBB2002284F82C3084F831
:200B80002D200A7A9A42D0D8224629460220FFF7E7FE4BE7DC260020987B00002DE9F0417E
:200BA00006460E200F4603F0A3FA4B4B1A780546002A6FD0494C2178002940D04A1CD2B2A9
:200BC00089B20720227003F079FA01210C2003F075FA434801F034F9044620B918E001F056
:200BE00083F90446A0B12946201D01F01DF903462046002BF3D0606B01F06CF9072821DD40
:200C0000394630460123BDE8F041062201F0F0B9344801F00BFA04460028F1D02946201DD2
:200C200001F0FCF8002304F13000C4E90C30A38501F002F92A48214601F004F9DBE70121DF
:200C40000222BEE7284801F0F1F9054688B3274801F0ECF9A86040B303F040FC686000B310
:200C60000620D5F8088003F031FAC8E9006710F0FF000ABF082388F8080088F80830606BC5
:200C8000294601F0DFF8606B01F0DAF885421ED0BDE8F08101221A7003F076FC0F4CC1B2E4
:200CA0008AE7A968114801F0DDF90F48294601F0D9F9606B01F00EF90028A1D121460848F5
:200CC00001F0EEF82146074801F0CCF998E72046BDE8F041FFF726BEC5260020C626002025
:200CE00098030020D4010020E0010020C801002008B5054801F088F9044801F085F9BDE87E
:200D00000840034801F080B9E0010020C8010020D401002010B501210C2003F0CFF9024B1C
:200D2000BDE810405B6818477C7A0000014B9B68184700BF7C7A0000014B1B6A184700BF54
:200D4000987B0000014B5B6A184700BF987B000010B50D4B82B01B6898470C4B04469B6AE7
:200D600001A91820984701280BD0002C0198B8BF15248028D4BFC4EB0000C4F1800002B068
:200D800010BD002002B010BD7C7A0000987B0000FFF704BF00B583B003F0EAF8032802D16A
:200DA00003B05DF804FBFFF7C1FF0028F8DB0E2003F09EF91F4901F037F8E8B10D2003F082
:200DC00097F91C4901F030F80028E9D101F0B8F8B8B1082003F07AF90028E1D00223ADF8E8
:200DE000043003F0C1F8144B8278DB688DF80620032101A89847D3E703F082F90028CFD031
:200E0000DCE701F0C3F8082003F060F918B90B4B9B689847C4E70223ADF8043003F0A4F8AE
:200E2000054B8278DB688DF80620032101A89847EDE700BFDC260020987B0000D87B0000B3
:200E400030B50C4C83B0A56A69461820A84738B901A90420A84728B1FFF74AFF236A98470B
:200E600003B030BD0199E36A21F00201019104209847F1E7987B0000F0B5038883B00546A9
:200E800033B14A2B18D188291BD0012003B0F0BD1B4800F0D5FF044630B1A168201D00F06B
:200EA00027FB2468002CF8D1164B01221A704A2301202B8003B0F0BD00230380032003B06C
:200EC000F0BD0F48019200F0BBFF04460028EED0019A031D9A4205D02468231D002CE6D087
:200EE0009A42F9D10648084E214600F0D9FFD4E90523376832600BB1E06998473760D6E72B
:200F0000CC050020C7260020FC0B002010B5064B064800241C7000F08FFF21460448BDE8C2
:200F2000104003F0F1B900BFC7260020CC050020EC01002070B50E4C049E25784661C0E9EC
:200F40000623044635B9A1600A482146BDE8704000F078BF084D094B2E682B60043000F00C
:200F6000C7FA2E6021460348BDE8704000F06ABFC7260020CC050020FC0B0020EC010020D0
:200F800010B5044C82B024680094FFF7D3FF02B010BD00BFFC0B002010B50A4B1B780446C6
:200FA0003BB9C0E9033321460748BDE8104000F077BF043000F0BEFA21460348BDE810400A
:200FC00000F06EBFC7260020CC05002038B50C4B1D7804466DB90B4800F032FF38B1A0426E
:200FE00002D10BE0844209D000680028FAD1012038BDBDE83840043000F08EBA002038BD85
:20100000C7260020CC05002010B50446C0B204F0B3FF204610BD00BF70B570B10E46451EBC
:20102000002404E0A64206D004F0A6FF013415F8010F0028F6D1204670BD0446FBE700BF92
:20104000014B01221A707047C9260020704700BF014B1878704700BFC92600202DE9F041B3
:20106000184A194B1478194DDFF86C80184F742202FB0434014694F86600287094F86730CF
:2010800094F865206B7082B0A81C06F0B1F894F86560104B02360422F6B2C3F80825002411
:2010A000009433462A465021384688F8004002F0C9FC0028F4D1074B0422C3F80C2502B04A
:2010C000BDE8F0812827002000900900D00500207477000000030050C82600202DE9F04764
:2010E000DFF874A0DFF874909AF80030174A184D184C7421002601FB039384B0167093F8AC
:20110000652031468046374606F05CF8ADF80C6001260096022303AA502120462F7002F03E
:2011200091FC0028F5D19AF800302870742202FB0393502193F865304246204602F0DCFC68
:201140000028E5D104B0BDE8F08700BFC9260020C826002074770000282700200090090012
:2011600030B5584A5849594885B003F01FF8584803F098F94FF08043D3F80034D80741D44E
:201180004FF08043D3F80034990749D44FF08043D3F800345A0751D44FF08043D3F8003409
:2011A0001B0759D403200023042400904FF0CC7001940290022447488DF80F301A466946B8
:2011C000ADF80D308DF80C4001F07EFD00284CD14148424C02F026FC01231A46032503F5DC
:2011E000E07002FA03F10133092B44F82050C4F80C15F4D13A4B1B78022B39D0012B43D06C
:2012000005B030BD37492F4A304802F0CFFF364803F048F94FF08043D3F800349907B5D51E
:20122000284A3249294802F0C1FF314803F03AF94FF08043D3F800345A07ADD5214A2B493C
:20124000224802F0B3FF2B4803F02CF94FF08043D3F800341B07A5D51A4A24491B4802F032
:20126000A5FF254803F01EF99CE7FFF7B1F8AFE7144A1549154802F099FF204803F012F992
:20128000C4F8085705B030BD0E4A0F490F4802F08DFF1B4803F006F91A4B1B4A1B68ADF8C5
:2012A000003069461B0C22208DF8023001F086FE28B90121222001F013FF05B030BDFFF7DA
:2012C00087F8F6E770760000747500007C7500007C760000707700007477000000030050DB
:2012E00025270020947600009C760000C0760000C4760000E87600000C770000307700006E
:2013000044770000587700004110000038B5094C238863B1054602E034F80A3F3BB1A11CA6
:20132000284600F081FD0028F6D0208838BD002038BD00BF8077000010B50A480A4CFFF718
:20134000E5FF0A4A0A4913880880002121603BB1012332F80A1F184601330029F9D12060D5
:2013600010BD00BFDC260020D406002080770000BC26002008B1FFF7C9BF7047704700BF68
:2013800010B5FFF7EDF90B4B1A68D2E9003192680B44191A52B1D2E9003423441B1A9268E4
:2013A000994228BF1946002AF5D14318024A136010BD00BFDC060020D80600202DE9F84325
:2013C000038805465BB3592B2CD187292FD0822920D12C4FDFF8B4803C684FF00009CCB16E
:2013E000002603E0A3682646A3B11C46204604F0B5FD0028F6D0E0682246882103F01CF85D
:2014000003464046002B2AD003F038F8A3682646002BEAD159232B800120BDE8F883194A8D
:201420001360F7E7002303800320BDE8F883154F3968002019B9EDE789680120D9B1CB68D8
:201440009342F9D000B139608B68002BE2D0D868904207BF9B688B6019469B68F5E7E3608D
:20146000A3686EB1B3603B68C4F808902BB1FFF787FF3C68B3E73960CCE7034A1360C9E7E6
:201480003B60F1E7DC060020D8060020FC01002010B50446104802F0F1FF1049E3680A685D
:2014A0004BB142B194420FD0134601E09C420BD09B68002BFAD10A4BA2601B68E3600C6013
:2014C000BDE81040FFF75CBF054B1B68E360BDE81040FFF755BF00BFFC010020DC06002013
:2014E000FC0B0020014802F0C9BF00BFFC01002010B5044604F01CFD2046BDE81040FFF7B9
:20150000C7BF00BF10B5044604F01AFD2046BDE81040FFF7BDBF00BFC068B0FA80F0400955
:20152000704700BF024B1868003818BF01207047DC06002010B5124B19688142044614D0EB
:201540000B462BB19A68A24206D01346002BF9D10023C4E9023310BDA2689A6049B1FFF78E
:201560000FFF0023C4E9023310BD82681A60002AF5D1044B00221A600023C4E9023310BD7A
:20158000DC060020D8060020014B1888704700BFEC02002000283ED0037A022B30B410D037
:2015A0000378022B15D00379B3B10024C37913F0030318BF012301B10C6002B1136030BC2A
:2015C0007047C579447A037965B90CB9012BF2D0DBB100231C46EEE7447A14F0030418BF85
:2015E0000124E3E7C4B1032D37D1032C2ED0022C24D143BB022D2DD00123032D24D1A4F1F7
:201600000204B4FA84F46409D5E7023C012C8CBF00240124CFE770474BB9022D08BF0123EB
:20162000EAD1A4F10304B4FA84F46409C3E7032D01D0022D02D123461C46BCE7002BC8D1E1
:20164000022DDAD1EDE701230024B4E7002BC0D10123D4E701231C46ADE7022DC7D1002B52
:20166000F1D1022C4FF00103DBD11C46A3E700BF30B500230B608B80437D0D46D9075CBF54
:2016800001232B70037E012B83B0044623D901AA694604F11000FFF77DFF009B0BB1022318
:2016A000EB70019B0BB102236B70E37D03F00303022B03D0032B14BF00230823AB70637ED3
:2016C00003F00303022B03D0032B14BF002308232B7103B030BDC37D9A0706D0437E9B076C
:2016E00003D0C28B838B9A4202D000232375CEE701230375CBE700BF02280CBF012307234E
:201700000B441A78FF2A184603F1FF3303D18142F7D1012070470020704700BF30B583B056
:201720006946FFF7A5FF9DF800309DF801509DF802409DF803109DF804209DF805000233AE
:201740002B4423440B441344184403B030BD00BF70B4437882780578C478DB00120102F0E0
:20176000100203F008031343027905F0070564012B4304F020049201234302F04002134319
:201780000B7043798579467AC479027A03F001036D0043EA861305F00205A0002B4300F077
:2017A0000C001201034302F03002134370BC4B70704700BFF0B583B00E4607466946FFF7CF
:2017C00057FF314607F11000FFF7C2FF9DF80030012B04BFBB7EB3709DF801300CBF0322B7
:2017E0000222022B08D1BB8BB354531CB98BDBB2090A0232F154D2B29DF802304BB35D1EE2
:2018000013443D44DBB214460132D2B215F8011931559A42F7D19DF80320022A08D1FA8BBF
:20182000F2545A1CF98BD2B2090A0233B154DBB29DF8040078B1C41D18443C44C0B21A46B9
:201840000133DBB214F80159B5549842F7D103B0F0BD1346DFE7184603B0F0BD30B402781B
:20186000437802F00700C2F3C005C2F300140870C2F34010C2F380124D708C7003F00105FB
:20188000C3F34004C8700A71C3F38100C3F301129B094D718C71C87130BC0A724B72704727
:2018A000012943DD2DE9F04186B00F4603A914460546FFF7D3FF03AB03CB9DF811201B880E
:2018C0002383206161616AB3AE1C03A802AA01A9FFF760FE9DF81380B8F1000F43D0029B53
:2018E000002B31D1B8F1020FA38367D0B8F1030F4DD09DF81580B8F1000F2CD0019BBBB9DE
:20190000A38BE383B8F1020F4DD0B8F1030F31D0701B3B1A8742C4E90E6300DA002006B029
:20192000BDE8F081AB78A376EE1CCEE700207047717816F8023B029A03EB01239BB2E3832A
:20194000002ADFD1A383DDE7727816F8023B03EB02239BB2C6E71E4904F1080000F05EFAD5
:20196000A4F81E80D4E71A49204600F057FAA4F81C80BEE706F10800034604F1080213F839
:20198000011D02F8011BB342F9D10646C0E706F108000346621E13F8011D02F8011FB34261
:2019A000F9D10646A5E70A4904F1080000F036FA7378237216F8023B6372A9E70449204632
:2019C00000F02CFA7378237016F8023B637090E7887A000030B591B002F0B6FA044602F0D8
:2019E000C7FA6A4601462046FFF75AFF00283ED0044602F08DFAD0B39DF810100C2002F02B
:201A00005DFB9DF81310082002F058FB9DF817308BB1BDF81C50FFF7B7FD854205D0BDF815
:201A20001C204FF6FF739A4221D19DF817006946FFF762FEB0B102A90D2002F04DFB9DF82C
:201A400015303BB14FF6FF71072002F037FB204611B030BD9DF81A10072002F02FFB2046D9
:201A600011B030BD69460E2002F036FBE3E74FF0FF34ECE7F8B505460C2014460E46A847E8
:201A800000232074A37496B3E37463750920A847002701232376A07567740720A847A076E8
:201AA000FFF772FDE0830A20A84701280CBF3B4603236376FFF768FDA0830B20A847012810
:201AC0001AD066B90323E375637E022B0CD0E37DA3F10203B3FA83F35B092375F8BD0223A3
:201AE000E375637E022BF2D101232375F8BD0820A8476675E074C9E7E775E5E730B591B008
:201B00000446FFF741FD4FF6FF7398425CD040226846002105F056FB2D4B1A782AB364BB0D
:201B200002F0EEFA6A46C1B22A48FFF7A3FF02F0E7FA00283DD04FF6FF73ADF800300D20DD
:201B400002F0D6FA014602A800F068F902F0FCF90E9002F00DFA034668460F93FFF7DEFD99
:201B60000546D4B9284611B030BD01221A7002F00BFD194B1870002CD2D0072002F0A6FA57
:201B80000028CDD1144D2978D9B189B2072002F095FA2B7801332B70C2E702F089F998B138
:201BA00002F0E2F901466846FFF704FE284611B030BD0E2002F09CFA0146684600F02EF98D
:201BC000BDE701212970E1E74FF0FF35CAE700BFCA260020CD400000CB2600200120FFF7B6
:201BE0008DBF00BF0020FFF789BF00BF0649074A074B9B1A03DD043BC858D050FBDC03F0ED
:201C000039FCFEF771FB00005C83000000000020F8020020FEE7FEE7FEE7FEE7FEE7FEE7B7
:201C2000FEE7FEE7FEE7FEE700F01F030121C0F34710994000F066B808B501F0B5F900B1DE
:201C400008BDBDE8084001F065B900BF30B583B01446022301F01F0100228DF8063014F07B
:201C60000C0341EA4015ADF8042006D0042B25D0082B27D00C2B02D103238DF8043014F0FB
:201C8000030304D0022B15D0012B02D103238DF805300E4A01A9284601F090F923062846F8
:201CA00003D401F089FA03B030BD012101F018FA03B030BD01238DF80530EAE701238DF81C
:201CC0000430DCE702238DF80430D8E7291C000001F01F0141EA40101F28CABF054B4FF040
:201CE000A04300F01F00D3F8101521FA00F000F001007047000300500146014800F0A2B822
:201D0000E006002070B505460C480E4600F098F890B1044601E0246874B1237AAB42FAD1B3
:201D2000E36816EA0301F6D063682846002BF2D098472468002CF0D170BD00BFE00600201E
:201D400008B5034800F078F8BDE80840FFF774BFE0060020EFF3108072B6704780F31088A3
:201D6000704700BF70B41A4A1A4D0023012440FA03F1C90712D59178B9B11178567801F016
:201D80001F0141EA46111F29C6BF01F01F012E464FF0A04604FA01F1C6F808150133042BFC
:201DA00002F10302E3D170BC70471178567801F01F0141EA46111F29C6BF01F01F012E4658
:201DC0004FF0A04604FA01F1C6F80C15E6E700BF3C750000000300500E4A30B40E4D02F1F5
:201DE0000C0403201378517803F01F0343EA41131F2BC6BF03F01F0329464FF0A04103F55B
:201E0000E0730332944241F82300EBD130BC0F20FFF7A8BF3C750000000300500B684A68AB
:201E200042600360704700BF08B5082205F0D2F9B0FA80F0400908BD00230360704700BF5C
:201E4000006870470368DBB110B4002400E0134699420FD01A681C46002AF8D100230B602C
:201E60000368CBB11A461B68002BFBD111605DF8044B70470A686CB1226000221A60EDE754
:201E800000230B6003684BB11A461B68002BFBD1116070470260F0E70160E8E701607047CA
:201EA00003689BB110B4002400E0134699421A6805D01C46002AF8D15DF8044B704734B183
:201EC000226000221A605DF8044B704770470260F7E700BF03682BB100201B680130002B8D
:201EE000FBD170471846704700B10068704700BFF0B170B50024104E054654B1E3070DD557
:201F0000295D304602F052F9072C10D00134002CF4D12978304602F049F9F7E72E2002F0E6
:201F2000BBFA295D304602F041F9072CEED170BD024802F03BB900BFA07A0000907A000092
:201F4000F8B5FEF70DFC104E0746344600250D2002F0CEF82146FFF767FF103420B9013591
:201F6000102DF4D10020F8BD072006EB051502F0ADF82B7B8342F5D1A868381AB0F5206FFA
:201F80008CBF00200120F8BDE4060020F8B5174E0024374635460D2002F0AAF82946FFF7A2
:201FA00043FF1035F8B90134102CF4D10F2407EB0414254654F8100D6168A268E368A6429C
:201FC0000FC5F6D1072002F081F83873FEF7C8FB0346BB600D2002F08BF8BDE8F840014647
:201FE0000248FFF71BBF002CE1D1EBE7E406002040B120B40D4611461A46034628465DF832
:20200000045B1847704700BF10B5044642884068002105F0D7F823886288A06802FB03F297
:20202000BDE81040002105F0CDB800BF30B44588ADB14368002202E00132AA420CD0194639
:2020400001330C78002CF7D101230B700588806802FB050030BC7047002030BC70472846EA
:20206000F8E700BF30B44488826854B18A420CD00588002301E0914208D00133A3422A44B8
:20208000F9D14FF0FF3030BC704700234268D15C0029F6D00020D05430BC704783688B42DD
:2020A00008D84288008800FB023081422CBF00200120704700207047054B10B51B689847CD
:2020C000044B5B689847044BBDE810405B681847987B000044760000D87B000010B50E4A6C
:2020E0000E490F4C0F4802F061F80F4802F05EF8FFF722F921880D4802F058F8238803B13D
:2021000010BD054A0A49074802F050F8BDE81040084802F0C7B900BFA87A0000B07A000005
:20212000BC2600207C750000B47A00003480000094760000D47A000010B5038804463BB1EC
:202140007E2B24D11748FFF7E7F920BB012010BD154A1649164802F029F8164802F0A2F9C9
:20216000154B1B689847154803F0DCFE144A1549154B1160154804221A8001F039FE094850
:202180004021FFF7B5F97E232380012010BD00230380032010BD084BDB6898470148FFF7BE
:2021A000B1F9F0E7E4070020EC7A0000747500007C750000F07A0000D0020020D121000005
:2021C000E8260020F4070020EC260020912200002DE9F0470D4682B0214907461646214883
:2021E000214A984601F0E2FF204801F0DFFF5DB1DFF894900024395D4846013401F0D6FF41
:20220000E3B2AB421C46F6D3194B1A481A88294608F1FF3901F0CAFFB9F1000F0ADDDFF8D8
:202220006CA00024315D01345046E4B201F0BEFF4C45F7DB4644104816F8011C01F0B6FFBB
:202240000E4B2A461868394604F0D2FF0C4B0D4ADB6815800020019302B0BDE8F0471847CA
:20226000747500007C750000EC7A0000FC7A0000BC260020047B000034800000E826002045
:20228000D87B0000EC260020A07A0000147B00002DE9F041002932D01E4C0D466368C9B29B
:2022A00090460646984700B323691B4F98471B4A1B491C4801F07AFF1B4801F077FF002410
:2022C000315D3846013401F071FFE3B29D421C46F6D84046FFF74EF8144B02462946144884
:2022E0001B88BDE8F04101F061BF0C4A11490D4801F05CFFBDE8F0410F4802F0D3B8074A08
:202300000C49084801F052FFBDE8F0410B4802F0C9B800BFD0020020A07A0000EC7A000009
:20232000747500007C750000187B0000BC260020207B0000C0760000387B0000547B0000DB
:2023400008B5044B1B699847034B0022C3F8FC2F012008BDE87B000000100040A1B118288D
:2023600010D8DFE800F00D770F0F6E65605B453F3A0F0F0F36322E2A0F26221E1A1713002A
:202380000020704701207047022070477D230B600020704700200860704710230B600020D6
:2023A00070470A230B600020704720230B600020704703230B600020704708230B60002054
:2023C0007047D8230B60002070471A230B60002070470B230B6000207047244B1B780B60AD
:2023E00000207047224B93F900300B6000207047204B214A012082B018601368002BFCD088
:202400000020106012681D4B0192019AD3F8483503F07F035B420B6002B07047184B5B79B7
:202420000B6000207047164B5B780B6000207047134BDB7800200860002BA1D001230B6080
:2024400070470F4B1B7800200860002B98D004230B607047094B0B4AD3F80835A2FB032300
:202460009B080A33DBB20B6000207047CC260020CD260020141000401C1100400010004067
:2024800030020020CDCCCCCC0120704770B582B0FFF760FCBFF35F8F1C4B1B78ABB11C4BDB
:2024A0001C4902224FF0FF34C1F80843C3F88021C3F88020BFF34F8FBFF36F8FBFF35F8F86
:2024C00002B0BDE87040FFF749BC134903F0FF020A600968114B019101991A601A680D49F5
:2024E0000B4B00924FF0FF3502224FF44054009EC1F80853C3F88021C1F804431A60BFF34C
:202500005F8F02B0BDE87040FFF728BC3002002000E100E000100040301100403411004083
:20252000144BD3F8FC0F28B1D3F85035DBB2032B01D000207047104B1B7803F0FF0073B1D6
:202540000E4B1B78053B7A2BF3D80D4B1B68002BEFD10C4B1868B0FA80F040097047074AD7
:202560001378053B7A2BE5D892F8800080F00100704700BF0010004030020020FC07002078
:2025800030110040341100400C2801D001207047042A05D121B1034B1B680B60002070476F
:2025A000022070478008002070B51C4CD4F85055EDB2032D82B02BD0194B1A481A4AC4F8BA
:2025C00004051A49C3F8102501264FF00062C3F81415C3F80465C3F80425FFF757FFD4F8D3
:2025E0000032134A43F01003C4F80032D4F80032D26843F40023C4F800329047022D09D0B9
:202600000C4B0D4A002119601B680193019B166002B070BD094B1E6002B070BD0010004069
:2026200000F00140FC070020381100404C800040E87B0000581100400410004008100040F9
:2026400070B52F4D2F49304A304B00242C6084B02D680095009D0C60096801910199146044
:20266000126802922A4D029A1C6029781B6803934B1F7A2B039A38D88C1E2246691C04F0BC
:20268000B7FD2B195B783F2B2DD89B00DBB2214E214A3370D2F84835204A03F07F035B4298
:2026A0005BB299B20420137001F008FD3178032001F004FD1A4B2A781A491A74D1F84C0555
:2026C0005860D1F8481599605200DA605D68104881220021023D1D6004F074FDFFF764FF3C
:2026E000204604B070BDFF23D1E781222146284604F068FDFFF758FF204604B070BD00BF95
:20270000381100400C1100403411004030110040FC070020CC26002000100040CD26002035
:20272000800800200080004010B5038804461BB340F2E232934224D1822901D0012010BD4F
:20274000124A1378053B7A2B16D8114B1B6813B992F8803083B103F0A7FC01F03DFC01F0F5
:20276000F3FB8021FFF76CFF002805DD80B201F0E5FB084BDB68984740F2E23323800120DC
:2027800010BD00230380032010BD00BFFC070020301100404476000070B4164B1649174C72
:2027A0000F22C3F810258A780A3A02EB8202C3F808250879CD798A794979120642EA052262
:2027C000024342EA0142C3F86C2640F2022600250B48C3F834657F2140F20122C3F83845A5
:2027E000C3F83C55C3F81405C3F81815C3F8502670BC7047001000403002002021100100E9
:202800000800000608B5084BD3F8FC2F1AB1FFF7CBFE012008BD0122C3F8FC2FFFF7BCFF7A
:20282000FFF7C2FE012008BD0010004030B585B0FFF7E8FF104A11491148124C00231360B4
:2028400015680395039D0B600D680295029D03600368019301230198236001E00B6813B9EB
:202860001368002BFAD0044A044B10681B68B0FA80F0400905B030BD48110040441100401D
:202880004C1100402C10004070B50E46072860D8DFE800F019255F5F54414804314A3248B6
:2028A000C9B25171D0F8FC3F5BB11179D479937952791B0643EA04230B4343EA0243C0F831
:2028C0006C36002070BD012947D0002943D1274B1B699847244BC3F8FC6F304670BDA1F1EC
:2028E0000B030F2B37D81F4B1F4DCAB29A70D5F8FC3F002BE5D01D4B1B699847A6F10A01D0
:2029000001EB81010024C5F8FC4FC5F80815FFF779FF204670BD31F001001CD1114BC9B25C
:20292000D97070BD0F4A104BCEB25670D3F8FC2F002AC6D0C3F80C65002070BD31F00704CC
:2029400009D1084BC1F380011970FFF79FFD204670BD012070BD022070BDFFF753FF002062
:2029600070BD00BF3002002000100040E87B00007D2801D90120704730B5264C85B0FFF78D
:2029800041FFE378002B3ED16378234A234CDBB20121C4F80C351160D4F85035DBB2022B83
:2029A000FAD11F4A1F4BC4F80435002313601168019101991366116E029102991A4D9364C5
:2029C000936C0393AB68039A9847D4F80032012243F48023C4F80032226001F053FE6FF0C7
:2029E00002031C1A01F04EFEE042FBD40B4AD2F85035DBB20B2BFAD02B699847FFF7D4FD03
:202A0000002005B030BDFFF711FF0028BCD10220F7E700BF300200200C100040001000407C
:202A20000C11004094080020E87B00007D2910B50C4607D801460648A31C00F8013B22468E
:202A400004F0D6FB2046BDE81040FFF791BF00BF9408002010B51C491C481D4A1D4C002314
:202A60000B6003704B6023708B6082B0CB600B741360136800934FF08043012100981960BD
:202A80001368002BFCD0002414601368019321461148019B01F038FC214681220F4804F047
:202AA00091FB0F4B1B6898470E4B0122C3F8FC2FFFF772FE0C4A1378DBB21370FFF7E6FC3D
:202AC000204602B010BD00BF80080020CC26002000010040CD26002020020020FC070020DF
:202AE000E87B000000100040300200207D290A4601D90120704708B501460448931C00F832
:202B0000013B04F075FB002008BD00BF94080020074A1378053B7A2B07D8064B1B6813B975
:202B200092F880007047012070470020704700BFFC07002030110040174B1B6803B11847CA
:202B4000164B1B7803F0FF0253B900B5144B196883B031B9134B1A688AB903B05DF804FBA5
:202B600070471A601B6800930F48104B009A012283F8802003B05DF804EB01F07FBC1960E8
:202B80001B68019381220948019B04F01BFB03B05DF804EBFFF708BDF80700203002002061
:202BA000301100403411004020020020FC07002010B568B90E4CA368012262703BB1D3E9C2
:202BC00000230020A2609847A368002BF7D110BD0128FCD1064C2369A070002BF7D0D3E974
:202BE00000230120226198472369002BF7D110BD1409002010B50B4C237882B013B1852054
:202C000002B010BD08486360A3602361E36000F015F9019000F01EF901980123237002B0C0
:202C200010BD00BF14090020B12B000038B5154DAB78044673B110B1436801209847002083
:202C4000FDF7F0FBEB680133EB600020BDE83840FDF7F0BB03F0FF00FDF7E4FB64B12A697A
:202C600042B1944208D0134601E09C4204D01B68002BFAD122602C61EB68002BE2D100F01E
:202C8000FBF8DFE71409002030B585B0047885888DF800408468ADF804508DF80640C568F9
:202CA000074A084B8DF80750D0E9044053F8213052F82110CDE902406846984705B030BD59
:202CC00028090020300900202DE9F04FDFF868C1077806460C465448497B4CF8272040F8B5
:202CE000273081B0154661B9504A002D3B46214606F1040008BF2A4601B0BDE8F04F00F071
:202D000013BE22684A48DFF82CB14FF0A04302F5E07240F20C6143F82210626802F5E07288
:202D20004FF0010A43F8221021681F2984BF01F01F0103F5407301228A40C3F8082563686C
:202D40001F2B8ABF3B4A4FF0A04203F01F030AFA03F3C2F8083523684FF0A04203F5E0733D
:202D600040F20D6142F82310636803F5E07340EA0A0842F823104FF48070C0474FF0000905
:202D800063681F2B8ABF5A464FF0A04203F01F01D2F8102598BF1946CA40D2073FD42368CB
:202DA0001F2B8ABF5A464FF0A04203F01F030AFA03F3C2F80C354FF48070C04723681F2BA6
:202DC00086BF03F01F035A464FF0A0420AFA03F3C2F8083509F101094FF48070C047B9F1FF
:202DE000090FCDD163681F2B8ABF12494FF0A04103F01F03012202FA03F3C1F80C354FF4DD
:202E00008070C04762681F2A86BF0A4902F01F024FF0A04101239340C1F8083564E7B9F1FB
:202E2000000FE0D160E700BF28090020892C0000007500000003005030090020044A1379CB
:202E400023B9012110609180184670478520704738090020074B1A68D20704D4C02283F83F
:202E6000002301221A604FF080430122C3F81825704700BF00E100E010B4094B094A0021B2
:202E8000196083B01B680193019C4FF0804102200123C1F80403136003B05DF8044B70474B
:202EA000040100400800004010B5174B1A6882B062B10021154A19601B68507900934FF080
:202EC00080410123009CC1F8083398B1104B1A68BAB100221A601B6801934FF08042022115
:202EE0000A4B0198C2F808131B68012002B0BDE810401847116853718847054B1A68002A5D
:202F0000E7D102B010BD00BF00010040380900200401004030B41F4C94F86A3082B0002B02
:202F200033D104F12F03204604F15F01FF2203F8012F8B42FBD14FF0FF3222600123072B7E
:202F400088BFE11803F1010340F8042F88BF81F858200C2BF3D11049104B0020C0228880DD
:202F6000606683F8062340221A600D4B0D4A18601B680193019D01214FF0004384F86A1095
:202F8000C2F8043302B030BC7047082002B030BC704700BF40090020A409002000E100E0B8
:202FA0007C61004000600040034B93F86A00003818BF0120704700BF40090020F0B4454FCA
:202FC0003B1893F93030002B5DDA91F802C0CCF3400CBCF1000F0CBF0823002307EB8304AC
:202FE000A4F104040CBF0C26082602E001339E424CD954F8045F0135F8D13C1847F823206A
:2030000084F83030BCF1000F4FD08A7854071AD4D5074ED41F284C7887BF2F4D00F01F02D2
:2030200002464FF0A04502F5E072A40045F822402A4DC40800F0070C2E5D012202FA0CF2AA
:2030400032432A558A7812F0020222D09B0003F1804303F5C0430978D3F8104524F44F34F9
:2030600024F44074C3F8104502020904D3F8100501F4403102F47C520A430243C3F81025D7
:203080000020F0BC70470820F0BC70470420F0BC7047083B1F44097897F8603043EA811394
:2030A00087F860301046F0BC7047FA1882F85800ABE71F2887BF084A00F01F0404464FF057
:2030C000A04202EB8402D2F8004724F00204C2F80047ADE74009002000030050A409002052
:2030E00070B4324C251883B095F93030072B22DD234493F858309B09032B46D0012B0CBF46
:203100004FF400324FF440321F288ABF284B4FF0A04300F01F0003EB8000D0F8003723F4CD
:203120004033C0F80037D0F800371A43C0F8002703B070BC7047DAB2072AF9D8980000F145
:20314000804000F5C04003F140029200D0F8106592B202F1804202F5C04246F00106C0F8CE
:2031600010650020106012680192019A0029DFD095F9302054F82220002AD9D00D49012212
:2031800002FA03F3C1F80433D2E71F288ABF084A4FF0A04200F01F03D2F8102598BF0346E0
:2031A000DA4002F0010202321204ADE7400900200003005000600040194B034493F930302F
:2031C000072B13DD1F288ABF164B4FF0A04300F01F0003EB8000D0F8003723F44033C0F8FC
:2031E0000037D0F80037C0F800377047DAB2072A14D810B49A0002F1804202F5C0420A4CE8
:20320000D2F81005012120F0010001FA03F3C2F81005C4F808335DF8044B7047704700BF14
:203220004009002000030050006000402DE9F04F002289B0CDE9022216461546704B714C79
:203240007148012204E0043383424FEA420211D019680129F7D1D4F804131142F3D01D606B
:20326000196800910433834246EA020600994FEA4202EDD1654B1A68012A07D016F0FF0FEC
:2032800017D1002E32DB09B0BDE8F08F00221A601B6801934FF0A042019BD2F810255C4B18
:2032A0000292D3F81035039316F0FF0F1ED046F00046584F01250024A30003F180432E429B
:2032C00003F5C0434FEA45050BD0D3F8100557F82420D3F81015C0F30520C1F3014102B1B1
:2032E00090470134082CE7D1002ECCDA4FF0FF33494D0DF1100ACDE906330022CAF80420EC
:203300000492A5F16408454C0027012614F9010B431C32D0C0F3C20E08AB03EB0E0C00F08E
:2033200007031CF8081C06FA03F31942C2B200F03F0022D008EB0009910999F9309058F82D
:203340002990B9F1000F4CD003294CD01F288BBFDFF8BCE04FF0A04E02F01F0202460EEB12
:2033600082021CF818ECD2F800C71EEA030FCCF3014C1BD1BCF1030F3CD0A542C6D1002F96
:2033800081D04FF0A0430299D3F81035204A9942D2F8102503D1039991423FF474AFDDE96C
:2033A0000401CDE90232CDE90601ACE7BCF1020FE3D1032904D0B9F1000FDED0C847DCE723
:2033C0004FF4403CD2F8003723F44033C2F80037D2F8003701374CEA0303FFB2C2F800379B
:2033E000E9E70329C9D11AF80EB04BEA030B0AF80EB0ABE70329DED14FF4003CE2E700BFF0
:203400000061004000600040206100407C6100400003005040090020A4090020A00900203B
:20342000074B0849084A0020186082B01B680193019BD1F808051368C0B202B0184700BF87
:2034400000D1004000D00040AC09002070B443791E4C1F4E03EB430546F82320655D8DBBFE
:2034600090F904308A78002B24DB03F1604303F561435201D2B283F8002390F90430002BD3
:2034800007DB144D03F01F0601225B09B24045F8232003680A88C3F8082543790879C97875
:2034A00003EB4303E218012550709170E554002070BC7047084D03F00F0352011D44D2B229
:2034C0002A76DAE7082070BC704700BFB0090020B409002000E100E0FCEC00E00368044AC9
:2034E00001211960437903EB43030221D1547047B009002010B403680022C3F8002183B009
:20350000D3F80031026801930123019CC2F8443311B10268C2F8043303B05DF8044B704794
:203520002DE9F041274F284EDFF8A08084B000244FF48035D7F804332B4211D056F824202B
:203540000023E0B262B1C7F84853C7F8085346F8243056F824300393D8F80030039A9847E9
:203560000134032C4FEA4505E4D1164BD3F80423D10702D5D3F80021C2B9124BD3F80423F7
:20358000920710D5D3F804216AB10022C3F80421D3F804210D4B0192019A1B68052004B0CE
:2035A000BDE8F041184704B0BDE8F0810022C3F80021064AD3F80031029304201368029AF2
:2035C0009847DAE700B0004040B10040B409002010B44A6B8C6AA24203460AD2486A825C45
:2035E000C3F81C254B6B5DF8044B013301204B63704791F82C0038B90A6A52060AD401204A
:2036000058615DF8044B70470122DA6100205DF8044B70470122DA615DF8044B81F82D20F5
:20362000704700BFF0B591F82F308BB00D460446ABB9D0F824214E6B8F6A002A32D0C0F8A8
:203640002431D0F8243104930123049A436181F82F30BE4216D0012318460BB0F0BD002330
:20366000C0F82431D0F824210392039AC0F81C31D0F81C210292029AC0F80831D0F80831D2
:203680000193019BD4F80431002BE4D00023C4F80431D4F804210992099A85F82D3018469F
:2036A0000BB0F0BDD0F81CC1BCF1000F14D0C0F81C21D0F81C310593059BD0F82431002BD3
:2036C00036D0C0F82421D0F8243106930123069A436181F82F30BCE7D0F80821002AB8D0AB
:2036E000C0F808C1D0F808210792079AD0F8242152B1C0F824C1D0F8243108930123089AF3
:20370000436181F82F30A4E74A6B896A8A42A0D2696AD0F8180588546A6BA96A0132481EA7
:2037200082426A630AD08A420FD00123236290E7FFF74EFF034600288BD18DE7286A4006F7
:203740000AD40223C4F80032EFE72A6A520680D5022285F82D207FE78A42E6D1F8E700BFEC
:2037600030B587B0384B01930023C0F80431D0F804210592059AC0F82431D0F82421049233
:20378000049AC0F81C31D0F81C2103920D46039AC0F80831AA6AD0F808110291012A0299BD
:2037A0006B63044685F82F3047D00123C4F800320123236295F82D20022A18BF23602B6850
:2037C00083B140F28623AB60AB68C4F80433002007B030BD29462046FFF724FF28B1019BA2
:2037E000013B0193019B002BF4DC95F82F30C3B1D4F8C434C4F8C4349BB113F0010F18BF54
:203800004FF4024048F2012208BF032013F0020F18BF104648F2022213F0040F18BF1046FA
:2038200000E00020019B002BD2DC00220523C4F800250320C4F80035CAE72B6A5B06B4D4A5
:203840000223C0F80032B3E7A086010030B587B0344B01930023C0F80431D0F804210592D5
:20386000059AC0F82431D0F824210492049AC0F81C31D0F81C210392039AC0F80831D0F866
:20388000082102920D4601220299C0F800326B6385F82F30026295F82D30934218BF8260EA
:2038A00029460446FFF794FE2B6883B140F28623AB60AB68C4F80433002007B030BD2946E1
:2038C0002046FFF7AFFE28B1019B013B0193019B002BF4DC95F82F30C3B1D4F8C434C4F823
:2038E000C4349BB113F0010F18BF4FF4024048F2012208BF032013F0020F18BF104648F253
:20390000022213F0040F18BF104600E00020019B002BD2DC00220523C4F800250320C4F8C1
:203920000035CAE7A0860100F0B50779394DC7EB071C05EB8C0494F82E60002E68D14FEAC0
:203940008C0CA66045F80C2084F8306084F82D6084F8316063604B7B84F838300B681F2B14
:2039600086BF03F01F032C4C4FF0A04403F5E07340F20C6644F823604B681F2B86BF03F06F
:203980001F03254C4FF0A04403F5E07340F20C6644F82360D1E900460368C3F80845C3F895
:2039A0000C658C68C3F824454FEA071EFAB102680B7B42F3073100294FEA123220DB01F185
:2039C000604101F561415B01DBB281F80033036843F30732002A4FEA133308DB0F4801213A
:2039E000520903F01F0301FA03F340F82230AEEB070705EB8705012385F82E300020F0BDED
:203A0000074902F00F025B011144DBB20B76DEE70820F0BDB80900200003005000E100E005
:203A2000FCEC00E00379064A0168C3EB031302EB83030220052283F82E00C1F800257047CB
:203A4000B80900202DE9F84F0479294F9DF828C00068C4EB041607EB8605BCF1000F95F8BF
:203A60002DE08C4614BF20210021BEF1020F31D0DFF880E0C0F808E395F830E00EF0FF09F4
:203A8000BEF1000F2DD1C4EB0414A40004F10C0A07EB0A0EB1F1000818BF4FF00108B6006B
:203AA0004FF0010B296285F830B0391907F80A90CEE90139CEE903298EF801C0C5E90923F3
:203AC000C0F888C585F82C80FFF7C0FEBB5923B1BDE8F88F0820BDE8F88F85F83030BDE81A
:203AE000F88FAB68C0F804331120BDE8F88F00BFB8090020864204002DE9F0470479214F3A
:203B00000068C4EB041607EB860595F82DE0BEF1010F29D08C461C49C0F8081395F83010CE
:203B200001F0FF0839BBC4EB0414A40004F10C0907EB090E4FF0010AB60085F830A0C5F811
:203B40002080391907F809A0CEE90138CEE903288EF801C0C5E90923C0F888C5FFF700FEDF
:203B6000BB5923B1BDE8F0870820BDE8F08785F83030BDE8F087AB68C0F804331120BDE82C
:203B8000F08700BFB809002086420400F0B52D4C2D4D87B021462846FFF744FDC8B994F85A
:203BA0002F30C3B9227B911E01292BD9274E0FCE01AD0FC533682B6000238DF80030236A51
:203BC0000022590784F8302003D4D4E900316846984707B0F0BD04F10C070FCF01AE0FC677
:203BE0003B683360D5F8C434C5F8C4349A0705D45D071DD502238DF80030E0E701238DF8FB
:203C00000030DCE7606AA1698842CFD1D4E9070184F82D306369C1F34011032AC4E909031E
:203C200084F82C102846214608D0FFF799FDD0E7D80744BF03238DF80030C0E7FFF706FE7E
:203C4000C7E700BFB809002000300040C409002010B5074C236882B03BB1064B1B68984745
:203C60000023236023680193019B02B010BD00BF00010140F409002070B5114B114A1D78D5
:203C80001160DDB9104E027801211970C6F80C25416804464FF47A720023C803490C02F054
:203CA0000FFAC6F80405237A084A5B01DBB282F810334FF480331360284670BD082070BD46
:203CC000CF260020F40900200000014000E100E0044B054901220220C3F804231A600870FA
:203CE000704700BF00000140CF26002010B504460020FCF797FB0E4A1378072B11D80D49F0
:203D00002370581C1070D1F80805012202FA03F30343C1F8083500240020FCF78BFB2046D2
:203D200010BD04240020FCF785FB204610BD00BFCE26002000000140034B044A00F5C070F3
:203D400043F82020704700BF000001403546526E014B00221A607047F809002010B5044627
:203D600000F03AF90D4A0E4B1188186800F044F974B121460E2000F0AFF90A490D2000F068
:203D8000ABF9094B002108469B689847012010BD06490E2000F0A0F9EFE700BFEC2600201F
:203DA000E8260020DC26002044760000887A000030B50E4B1C6883B0B4B100F0C5F80546A5
:203DC00000F0D6F801460D20019100F091F900900E2000F08DF9DDE900210346A4462846E9
:203DE00003B0BDE83040604703B030BDF8090020014B1860704700BFF8090020704700BFC2
:203E0000704700BF704700BF704700BF704700BF704700BF704700BF002070470020704730
:203E20000020704701207047704700BF0120704701207047704700BF00207047704700BFEA
:203E400000207047704700BF704700BF00207047012070470120704700207047704700BFCB
:203E60002DE9F0410E4A0F4B16781F88F419802C03DD00242046BDE8F081DFF830803246DC
:203E80004146054603F0B4F9074B1B7833443A46A81958FA83F103F0ABF92046BDE8F0813A
:203EA000D0260020BE260020C0260020FC09002070B4134B134D144A2C781B781288234445
:203EC00052FA83F39BB21A18802A15DC013B1BB2002B0CDB0D4A591C1E1811443244013BE2
:203EE00011F8016D02F801691BB25E1CF7D120442870012070BC7047002070BC704700BF16
:203F0000C0260020D0260020BE260020FC090020084A138883420BDB10B407490C8880B2EA
:203F20001B1A20440880138001205DF8044B704700207047BE260020C0260020014B18808C
:203F4000704700BFBE260020044A054B12781B780448134450FA83F0704700BFC026002050
:203F6000D0260020FC09002000487047FC090020014B1888704700BFBE2600200549064ADE
:203F8000064B127808781B88104453FA80F080B2704700BFD0260020C0260020BE2600204A
:203FA00010B50A4B0A4C0B49002220461A605A609A60DA601A615A611A83FDF72FFF04F163
:203FC00008000449BDE81040FDF728BF00270020F0260020887A000004480549054A002331
:203FE00003800B801370FFF7DBBF00BFC0260020BE260020D026002070B5802982B00B4A6C
:204000000B4D0C4E01900C464FF0000328BF8024137033802B80FFF7C3FF01990648224655
:2040200003F0E6F820462C8002B070BDD0260020BE260020C0260020FC090020F0B40D4B7D
:204040000D4A1C685D689F68DE68C6600460456087601C695D69456104611B8B0383D4689F
:204060005068936812680A60CC604860F0BC8B60704700BF00270020F026002070B40D4BCF
:20408000026844688568C668DE601A605C609D60026944695C611A61028B1A83064B0C683F
:2040A00048688A68C968D9601C6058609A6070BC704700BF00270020F0260020024B23F83F
:2040C00010100120704700BF00270020014B33F8100070470027002008B5044B0D3803EB1E
:2040E000C000FDF79BFE012008BD00BFF0260020024B0D3803EBC000704700BFF0260020AC
:2041000001490248FDF790BE887A0000F826002008B5FDF715FEBDE80840FDF75DBE00BF0A
:2041200008B5FCF771FA002000F034FA01F038FF00F0A8FB4FF08052064BD2F8A800D2F8CD
:20414000A4205A604CF6F4613622D87019809A7008BD00BFDC26002008B5044B1B689847F3
:20416000BDE808400248002100F0CEB8E87B00006002002010B5FDF7EDFD0446BFF35F8FFF
:2041800000F050F900B930BFBFF35F8F2046BDE81040FDF7E3BD00BF0AB90020704708B599
:2041A00008461146FCF738FF002008BD0FB400B583B004AA054852F8041B019200F02CFC91
:2041C00003B05DF804EB04B0704700BF400200202DE9F843DFF8A880D8F8004084420546EB
:2041E0000F4645D0002C36D0234601E0002B32D01B689D42FAD173B3204EAB7BD6F8009067
:20420000F3B10023AB73002C34D0A54209D0A37B13F0010F20462A464FF0870101D000F03A
:2042200031F82468002CF0D1AB683BB1BD4205D035600022832105F10C009847D8F80040BD
:20424000A5420AD02CB12368AB420CD01C46002CF9D1C6F80090BDE8F8832B68C8F8003023
:20426000C6F80090F7E72B682360C6F80090F2E72346C0E7AB68002BD8D1EAE7FC0B0020E6
:20428000000C00208368BBB170B504460B4E0220A073346004F10C000D4698470238012874
:2042A00004D9832D02D00123A37370BD21462046BDE87040FFF78CBF704700BFFC0B002038
:2042C00038B50B4A0B4B146800221A707CB1012501E024685CB1E37B002BFAD0E581204632
:2042E00000228221FFF7CEFF2468002CF3D138BD000C0020D4260020024B1878421C1A70BA
:20430000704700BFD226002070B50E4D2C68844207D00A4634B1234600E01BB11B689842B7
:20432000FBD170BD0028FCD0074E04600121002334688173838181212860FFF7A3FF3460A8
:2043400070BD00BF000C0020FC0B002030B4074B07480849084A094C8A251D7000230370CF
:204360000B601360237030BC704700BFD2260020D3260020000C0020FC0B0020D1260020CF
:204380002DE9F041224D2B78FBB9224E3378C3B12148224C027802EB420704EB8701013250
:2043A00002F01F02013B0270886814F82770D1F80480DBB2337058B1812F1ED0827BD207AF
:2043C0001DD428781844BDE8F081FFF779FFDCE7134A14685CB9F4E7A37B13F0010F204649
:2043E0004246394601D0FFF74DFF24685CB12B78002BF1D0FFF764FFEEE7012383734246AB
:204400003946FFF73FFF337828781844BDE8F081D4260020D3260020D12600207C0A00203C
:20442000000C0020024A034B10781B7818447047D3260020D426002070B40D4D2C78202CE7
:2044400012D00C4B0C4E1B78234403F01F0303EB430301342C7006EB8304C4E9012006F871
:204460002310002070BC7047012070BC704700BFD3260020D12600207C0A002018B1837BA6
:20448000013B012B00D97047024A01231370C373704700BFD426002010B50446FCF7B4FDB8
:2044A000204610BD10B5044602F0B0FE01462046FCF7B2FD0A20FCF7A7FD002010BD00BF5E
:2044C00008B50448FDF7A0FDBDE808400248FDF79BBD00BF540200204802002038B50E48DD
:2044E000FDF7A4FD044678B10C48FDF79FFD0546206058B1FFF7B4FC05F19C01A5F88000A6
:2045000005F18200FFF79AFD204638BD214602482C46FDF7A7FDF7E74802002054020020C2
:20452000006800F19C018230FFF788BD10B5014604460748FDF7B2FD00B910BD21680548F4
:20454000FDF790FD21460248BDE81040FDF78ABD480200205402002010B501460446094872
:20456000FDF79CFD00B910BD2468B4F880102046FFF742FD04F19C0104F18200BDE81040C7
:20458000FFF77CBD4802002008B501F043FF80B208BD00BF0F4B0121002219601946C3F8AB
:2045A0000021D1F80031002BFBD0D1F80805094A0023C0B2C1F80031D2F80031002BFBD051
:2045C000D2F80815012340EA012080B2536001F0F3BE00BF00D000400023013A02710160FD
:2045E00043718371704700BF10B4817942790479521A224208D003464A1C00682240405CEA
:204600009A715DF8044B70474FF0FF30F9E700BF10B4164A164B17490020106083B0126805
:204620000192019AD3F8102522F00F0242F00802C3F81025D3F8082542F00302C3F80825E6
:20464000D3F804254FF4803422F003024FF48070C3F80425C3F80443C1F88001086001227A
:204660001A6003B05DF8044B704700BF408100400080004000E100E0014BC3F8400570476E
:2046800000800040034A044B01211160D3F84405704700BF4480004000800040064B1A680A
:2046A00002B97047002282B01A601B680193019B02B000F005B800BF40810040FFF7A8BF8B
:2046C00010B5084C206858B1D0E90131002222609847236823B1BDE810401868FFF7CCBF6D
:2046E00010BD00BF941100202DE9F0410488752C064607D07C2C37D0A4B100230380032005
:20470000BDE8F081DFF8D0802E4D98F800202E4F00233B602B6012B32C4CE256002A41DBB0
:204720002B6832E02A4F274DFFF7E6FD294B3A6818702C60002A43D02346244C984604F8F4
:20474000038000219368802098472B6801332B6057F82320002AF2D1DBB21F4A1370752359
:2047600033800120BDE8F0811A4B1B788B4216D1144D164CDFF86080134F2B683A68E15C55
:2047800001F07F010132E1543A6098F80020013393422B60C1DB3B68002BB9D1DFE7012087
:2047A000BDE8F0810A4A0B4952F8232009780020FFF742FE0028E0D17C23338001209FE705
:2047C0001346CAE79C11002098110020E42600203802002023270020D526002070B504887F
:2047E000672C06461BD0792C33D05CB300230380032070BD1E4C1F4923681F4A0978581C87
:20480000002520602846D554FFF716FE1B4B2A4618688521FFF710FE30B300232360184C65
:20482000134D06E00A28E5D00D28E3D02B687E2B15DD2046FFF7D8FE431CF3D167233380A3
:20484000012070BDFFF758FD0A4A094B10701C60E5E7852901D0012070BD054CDDE706491E
:204860005A1CC8542A60E4E779233380012070BD2012002024270020A0110020FC0B0020FF
:204880002412002008B5054905488022FFF7A4FEBDE8084003480021FFF736BD2C12002090
:2048A0002412002070020020074B82B001AA9A42019304D9CD2103F8011B9342FBD10348A3
:2048C000002102B0FFF720BD382700208002002038B5124C124D01F0E7FB2378CD2B08D029
:2048E000AC4202D30EE0AC4212D014F8013FCD2BF9D1AC4202D30BE0AC4209D014F8013F68
:20490000CD2BF9D001F0D0FBAC4203D2281B38BD01F0CAFB4FF0FF3038BD00BF38270020C8
:204920000000042070B5038804463BB1912B0ED11F48FCF7F1FD70B9012070BD1C484FF46C
:20494000A061FCF7D5FD91232380012070BD00230380032070BDFFF7BBFF164E164B051E5E
:20496000A6EB030615DB002E13DBB5420DDD134B1B68002B09DD124A12491348FFF716FCA4
:20498000124832462946FFF711FC0948FCF7BAFDD9E70A4B1B68002BF7DD094A09490A484A
:2049A000FFF704FC324629460948FFF7FFFBECE7AC12002000000420382700200C02002057
:2049C000747C0000C07600007C750000A87C00007C7C0000102A2DE9F041144606460D462A
:2049E0000DD90C4F01E0102C0CD93368286810223946103C98470028F5D0BDE8F081104614
:204A0000002AFAD03368286802492246BDE8F041184700BF187D00000B78002B00F0DF843A
:204A20002DE9F04F91B0904600228A468146009204E01AF8013F002B00F0D680252BF8D1FF
:204A4000514500F00381AAEB0104D9E9003022469847002840F05881009A9AF80030224486
:204A60000092002B00F0C3809AF801300AF10104002B00F0BC800021A3F12002102A0AD839
:204A8000DFE802F0AF0909AC09090909090909A909A60909A100A3F13102082A40F2BD803E
:204AA0002A2B00F0C88000262E2B00F0AB804FF0FF3B6C2B00F09F80682B00F0CA807A2B3E
:204AC00003D1637841F060010134782B00F2EA80DFE813F08D00E800E800E800E800E80082
:204AE000E800E800E800E800E800E800E800E800E800E800E800E800E800E800E800E80036
:204B0000E800E800E800E800E800E800E800E800E800E800E800E800E800E800E800C40138
:204B2000E800E800E800E800E800E800E800E800E800E800E800E800E800E800E800E800F5
:204B4000E800E800E800E800E800E800E800E800E800E800E800BD01E800E800E800B60130
:204B6000AF01A801E800E800E800E800E800E800E800E800E800E800E800E800E800E8002C
:204B8000E800E800A101E800E800E800E800E800E800E800E8009A01E80093011F015B01D0
:204BA00069016201E8001F01E800E800E800E80085017E017701E800E8007001E800540185
:204BC000E800E8004D0141F0100114F8013F53E741F00101F9E741F00601F6E741F008018D
:204BE000F3E741F00201F0E78A457FF42CAF009811B0BDE8F08F63786C2B31D0013441F05D
:204C0000600162E76378A3F13000092804F101022BD92A2B3AD0144649E7002606EB860692
:204C200003EB460614F8013FA3F13002092AA6F13006F3D938E7D8F800606378002E08F10B
:204C40000408B8BF41F0010101342DE79AF8003007E76378682B20D0013441F0400134E785
:204C6000A37841F0800102342FE74FF0000B0BEB8B0B03EB4B0B12F8013F2F2BABF1300B86
:204C800040F29282392BF2D9144612E7A378D8F800B0023408F104080BE7A37841F0200117
:204CA000023412E701F4E0630F46B3F5A06F04F1010A39D000F29181B3F5407F00F09C8100
:204CC000B3F5806F40F0D180D8F80050019508F10408002D40F02082C44B01930625BBF188
:204CE000000F02DB5D4528BF5D46AE428CBF761B0026F80740F12382D9E9003001992A46D9
:204D00009847002800F0B9814FF0FF3011B0BDE8F08F01F4E06343F48073B3F5A06F41F4C1
:204D2000245704F1010AC5D1012ED8F800308DF82830354638BF0125FA0705F1FF3508F19A
:204D4000040840F11C82D9E9003001220AA998470028D9D12A4609F104014846FFF73AFED4
:204D6000009B01330028CFD1EB1800933FE001F4E06343F4807341F4C85796E701F4E0637C
:204D800043F4807341F410678FE701F4E06343F4007341F4024788E701F4E06343F4007316
:204DA00041F4813781E701F4E06343F4007341F400777AE701F4E06343F4806341F4806741
:204DC00073E701F4E06343F4407341F440776CE701F4E06343F4807341F4885765E704F161
:204DE000010AD8F80030009A1A6008F104086378002B3FF4FCAE514620E601F4E06343F4A0
:204E0000A06341F4A06750E701F4E06343F4007341F4C13749E701F4E06343F4807341F446
:204E2000B24742E701F4E06343F4007341F4A1373BE701F4E06343F4007341F4844734E742
:204E400001F4E06343F4007341F442472DE701F4E06343F4007341F4E13726E701F4E0632A
:204E600043F4C06341F4C0671FE7B3F5807FBED1BBF1000FABBF27F010070123CDF804B050
:204E8000019317F40053069307F0E00300F01D81402B00F07C8200F20B81002B00F05A8251
:204EA000202B40F09E8298F9002008F10408D317002A73F10001C0F21D82CDE9022307F401
:204EC000C053B3F5805F00F08C81B3F5C05F00F0E781B3F5006F00F0AD81002305939B464B
:204EE0000DF13E030493019B9B4534BFA3EB0B03002341F60802019307EA020141F20803A7
:204F00009942019B00F0138191425B4404D1DDE902120A4340F0588100250795069A7AB193
:204F2000059A002A40F04C8107F00602022A00F054812F49062A079A04BF0A4601250792A0
:204F40002B449E428CBFF31A0023029317F00103059307D1FE0640F1F381DDE901210A4498
:204F6000CDE901233DB1D9E9003007992A46984700287FF4C9AE009B019F5B44102F0093CA
:204F800040F2B2811B4ED9E9003010223146103F984700287FF4B8AE102FF4D8D9F800306D
:204FA0001449D9F804003A46984700287FF4ACAED9E9003004995A469847009B1D44002839
:204FC0007FF4A2AE019B2B449B46059B002B40F0ED80029B5B44009309E7B3F5C06F5BD0F9
:204FE000B3F5E06F3FF4FDAE01E700BF0C7D0000047D0000287D0000D8F80010C948CA4D7E
:2050000017F4804F08F104080A464FF0000314BF8346AB4600296AD00DF13B0E7146100918
:2050200002F00F0C40EA03701D0902462B461BF80C0001F8010D52EA0300F0D1BEEB010512
:2050400057D003357823AE4201F8013C4FF030024FF0230301F8022C01F8033CA1F1030B5B
:205060008CBF761B0026F9077ED5D9E9003059462A46984700287FF447AE324609F10401F4
:205080004846FFF7A7FC009B2B441D4600287FF43BAE73190093AAE6D9E90030A349012248
:2050A000984700287FF430AE009B013300939EE6602B00F04F81802B40F0938108F1070870
:2050C00028F00708F8E80223F2E6402B00F0578115D8002B00F04481202B40F0998198F8A7
:2050E00000200023CDE9022308F10408E7E60DF13B01302301F8013C04250139A2E7602B86
:2051000000F02E81802B40F0838108F1070828F00708F8E80223D0E62B78002B00F04881A0
:2051200015F8013F002BFBD1019BED1AD7E5012B38BF01230025019307955B44EEE6324645
:2051400009F104014846FFF745FC00287FF4DCAD0199D9E900302A46984700287FF4D4AD70
:20516000009B2B441D4694E7324609F104014846FFF730FC00287FF4C7AD5946E9E72A4632
:2051800009F104014846FFF725FC00287FF4BCADD9E9003001220AA99847009B01330028C9
:2051A0007FF4B2AD2B44DFE514468EE4029A09F104014846FFF70EFC00283FF40AAFA3E559
:2051C0005B4A07920125BBE65A495B4A17F4804F18BF0A4607920225A0E6584A07920125DA
:2051E000AEE6DDE9022313433FF477AEDDE902231846002315460593DDE902230DF13E01FB
:2052000007918C464FEAD20B4BEA437B02F007014FEAD30E30315A4673460CF8011D52EAEF
:205220000301EFD1079BCDF810C0CDE90250A3EB0C0B58E6DDE90223134300F0C8800023EC
:205240000593DDE902120DF13E03CDE9086407938B46154604971C46584629460A2200235C
:2052600000F02EFF303204F8012D584629460A22002300F025FF2F465E46002F08BF0A2ECE
:2052800083460D46E8D2079B049F089E04942246A3EB020B099C26E600220023CDE90223E1
:2052A00017F4804365D10593DDE902231E4DDDE90201014300F085800DF13E00079011090D
:2052C00002F00F0E41EA03714FEA131C0A46634615F80E1000F8011D52EA0301EFD1079BDC
:2052E0000490A3EB000BFEE5019B002B3FF460AE1F4653E6524207F4C05163EB4303B1F51E
:20530000805FCDE9022355D0B1F5C05F45D00123B1F5006F059394D00DF13E0304934FF08A
:20532000000BE0E5E47C0000D07C0000147D0000007D0000F87C0000FC7C0000087D000072
:20534000029A09F104014846FFF744FB00283FF409AED9E4D8F8002008F10408D317A7E5B5
:20536000D8F8003000221946CDE9021208F10408A5E50021DDE90223324D059197E7B8F804
:2053800000200023CDE9022308F1040897E5B8F9002008F10408D3178AE57B0405D50121C4
:2053A000DDE90223274D059186E7012305937BE7019DB9E6DDE902231846012315460593D0
:2053C0001AE70DF13E034FF0000B04938BE54FF0000B0DF13E03CDF814B0049383E51846CD
:2053E000704707F4C053B3F5805F06D0B3F5C05F3FF452AFB3F5006F13D0002305939B46FA
:2054000000230022CDE902230DF13E0304936AE507F4C053B3F5805F08D0069B05939B46C0
:20542000EEE74FF0000BCDF814B0E9E70699059100230022CDE902230DF13E038B460493F8
:2054400051E500BFE47C0000074A084913681844884202D8106018467047054B0C221A605D
:205460004FF0FF331846704790020020000004201C27002010B44FF080414FF08052002078
:20548000C1F80C015E4BC1F81001C1F83805D2F80414C3F82015D2F80814C3F82415D2F867
:2054A0000C14C3F82815D2F81014C3F82C15D2F81414C3F83015D2F81814C3F83415D2F834
:2054C0001C14C3F84015D2F82014C3F84415D2F82414C3F84815D2F82814C3F84C15D2F874
:2054E0002C14C3F85015D2F83014C3F85415D2F83414C3F86015D2F83814C3F86415D2F8C4
:205500003C04C3F86805D2F840043E49C3F86C050968D2F84424C3F87025082924D04FF00B
:205520008043D3F80024D20744BF6FF00102C3F80024354AD2F8883043F47003C2F888307F
:20554000BFF34F8FBFF36F8F4FF01023D3F80022002A23DBD3F80432002B1FDB2B4B2C4A72
:205560001A605DF8044B70472A4B1B68002BD6D129482A4A2A4C04602A492B4BFB20C2F80F
:2055800018050A681B68294822F00F0203F00F0313434FF400720B600260C0E7244A01234F
:2055A000C2F80435D2F80034002BFBD04FF0102312211F4AC3F80012D2F80034002BFBD035
:2055C0004FF0102312211A4AC3F80412D2F80034002BFBD000231649C2F80435D1F800348B
:2055E000002BFBD0BFF34F8F0749124BCA6802F4E0621343CB60BFF34F8F00BFFDE700BF9B
:2056000000C000403001001000ED00E0940200200090D003340100108C56004000F00040CC
:2056200048810300E40E0040580200104096024000E001400400FA05802802D1024B0022DC
:205640001A600120704700BF04C500400120704730B5134C0123236083B0FFF713F86FF0DA
:2056600003031D1A03E0FFF70DF8C54203D5D4F80031002BF7D00A4B0022C3F80021D3F823
:205680000825D3F80835920544BF6FEA83536FEA9353034A019301235360019803B030BDDC
:2056A00000C0004030B5038883B004463BB1B3F5E37F10D1822913D0012003B030BD154A78
:2056C00015491648FEF772FD1548FEF7EBFE4FF4E3732380F0E700230380032003B030BDF3
:2056E000104B9B6898470028F1D00F4B1B780A2BEDD00E4D0DF10301AB6801A89847002885
:20570000E5D00B4BAD691B780A4A9DF803100198A847DCE7547D0000747500007C750000E3
:205720005C7D00005C770000D7260020D00200202C2700209802002010B50388044693B1A3
:2057400040F2292293421BD182291DD10F4B9B68984780B10E480F490123002203700B8013
:205760002280022010BD0C4A0C490D48FEF71EFD0C48FEF797FE40F229232380012010BD9B
:2057800000230380032010BD012010BD5C770000D6260020C2260020547D000074750000D4
:2057A0007C750000847D000070B50388B3F5F77F044608D040F20922934213D0B3B100236B
:2057C0000380032070BD82290ED1274A274B12781B789A4212D0264DFEF754FF2B68ABB9FC
:2057E000286013E082290ED0012070BD214A22492248FEF7DBFC2248FEF754FE4FF4F773ED
:205800002380012070BDFEF73DFF194D2B68C01A002821DB154E1B4A33781B48C3EB0323C5
:205820001844136998473278184B0132A3FB0213DB0803EB8303A2EB43033370FEF722FFDB
:20584000094A3378127800F2E2409A422860D5D00F48FEF713FED1E70D48FEF70FFE40F205
:2058600009232380012070BDD8260020D9260020BC120020547D0000747500007C75000035
:20588000E87D00005C770000B81C0020CDCCCCCCAC0200200148FEF7F1BD00BFC002002050
:2058A0000148FEF7EBBD00BFAC0200200148FEF7E5BD00BF9C02002010B50F4A147884B139
:2058C0000E4B0F4C1B780B701378013BDBB2C3EB032121441370016014780134E4B22046DA
:2058E00010BD084A08490948FEF760FC0848FEF7D9FD204610BD00BFD726002026270020FF
:20590000C0120020547D0000C07600007C750000107E000070B5124D124C2B78124E5A1CB4
:20592000A4FB02C4E408367804EB8404A2EB4404B4420AD00D4EC3EB03230A460146F0187E
:2059400001F056FC2C70012070BD094A09490A48FEF72CFC0948FEF7A5FD002070BD00BF12
:20596000D8260020CDCCCCCCD9260020B81C0020547D0000C07600007C750000207E00002F
:205980002DE9F04FA24AA349A348DFF81893A34FA34EA44CA44D89B0FEF708FCA349A4489F
:2059A000FEF704FC9A4A9B499B48FEF7FFFBA148FEF778FDD9F800309847954A954996488A
:2059C000FEF7F4FB9C48FEF76DFD914A9B499248FEF7ECFB01219A48FEF7E8FB994A3B78B9
:2059E000117832888C48013391423B702378884A924906BF4FF0010A85F800A04FF0000A21
:205A0000002B40F06981FEF7D1FB8F48FEF74AFD2B78012B1CBF02232B708C4B06938C4CBB
:205A20002379002B71D07A4A7A497B48FEF7BEFB2379002B67D02379012B62D02379022BA5
:205A400000F071812379032B00F0088222798149814B042A18BF1946804A069B12781B7803
:205A60007F4800923A78DFF84082FEF79FFB684A72496948FEF79AFB7A480121FEF796FBE1
:205A800098F80030328801337D2A88F80030764B40F0F18119460793002203230A702B7048
:205AA0005B4A5C495C48FEF781FB7048FEF7FAFCD9F804309847079B6D481B782A787421DF
:205AC00001FB0343012A197901706A4993F865300B7000F02A81022A00F0B7814C4A4D49ED
:205AE0004D48FEF763FB2B781BB3012B00F02281022B00F010816049604A032B18BF114631
:205B000018E05F49A8E75F49A6E7414A4B494248FEF74CFB5C48FEF7C5FC3B78012B00F013
:205B2000F880069A12789A4200F2F2800323237179E756495648FEF739FB354A3549364888
:205B4000FEF734FB5348FEF7ADFC314A31493248FEF72CFB00215048FEF728FB2C4A2D49A0
:205B60002D48FEF723FB31884C48FEF71FFB284A28492948FEF71AFB237993B12379012B3B
:205B800000F0DA802379022B00F0C9802379032B00F06F8122792F492F4B042A18BF19461E
:205BA00000E0384922793E48FEF700FB23791BB12379042B40F2C680154A16491648FEF7B7
:205BC000F5FA2B4B1978079B1A7871B1012900F0B780022900F0A180032900F048811D48A2
:205BE0001D4B042908BF034600E0264B21492878097800285AD0012800F0A080022800F07F
:205C000090801D4C1D4D03280CBF204628464EE0547D0000747500007C7500002727002090
:205C2000BC2600209802002025270020707E0000787E0000907E0000A47E0000947600001E
:205C4000C07E0000BC020020DC7E00002C27002000900900447E0000547E00002D270020BA
:205C60004C7F0000787F000028270020C87F00002A27002026270020687E00006C7E0000FE
:205C8000307E00004C7E0000187F00005C7E0000D87F0000F47F0000148000002480000019
:205CA000388000005C7700002B2700208048814C98F800C02678069C25783C78CDE90010AB
:205CC000CDE9046CCDE902457B497C48FEF76EFA012009B0BDE8F08F794B0693FEF766FA0C
:205CE00001217848FEF762FA069823780278318801329942027006D0FF2B7FF490AE2B7831
:205D0000002B7FF48CAE02232B704FF0010A86E60223237187E66C490CE76C4B66E76B49AF
:205D200040E76948C3E7694996E669480021FEF7EBFAD3E66749FDE6674933E76548B6E7A7
:205D4000654B53E7654A6649664893468A46FEF72DFA6548FEF7A6FB002602E00136302EA8
:205D600013D004EB060999F80530002BF6D05A4651465C48FEF71AFA314699F805205B48D7
:205D80000136FEF713FA302EEBD1544A5449554893468A46FEF70AFA5548FEF783FB002600
:205DA00002E00136302E13D004EB060999F83530002BF6D05A4651464A48FEF7F7F931467F
:205DC00099F8352049480136FEF7F0F9302EEBD1A36E424A42494348002B41D1FEF7E6F959
:205DE000E16E4448FEF7E2F93D493C4A3D48FEF7DDF9216F4048FEF7D9F9384A3849394839
:205E0000FEF7D4F9A16E3D48FEF7D0F9334A34493448FEF7CBF994F865103948FEF7C6F909
:205E20002E4A2F492F48FEF7C1F994F866103548FEF7BCF9294A2A492A48FEF7B7F994F89A
:205E400067103148FEF7B2F9B6E630480021FEF75BFA2F480021FEF757FA3FE62D49FBE5DA
:205E6000FEF7A4F9A16E2C48FEF7A0F9C5E7294BBCE6284996E6BAF1000F13D0194607933A
:205E80002B7800220A70002B7FF40AAE134A23491448FEF78BF92248FEF704FB002009B098
:205EA000BDE8F08F85F800A083F800A0EEE700BF5C7E00002D270020707E000038810000FD
:205EC0002C270020FC7E0000647E0000347E00009C020020607E0000307E0000547D000026
:205EE000747500007C7500005880000068800000788000008C800000A8800000D880000084
:205F0000E8800000008100001C810000AC020020C00200203C7E0000C4800000C076000017
:205F2000947F0000014B9861704700BFD002002010B541600446FAF713FC206010BD00BFE5
:205F400010B50446FAF70CFCD4E90021C2F101031844884284BF5218226010BD10B5044673
:205F6000FAF7FEFBD4E90032C3F10103184482422CBF0020012010BD074B084AC3F81C05F7
:205F800082B01368002BFCD00023136013680193019B02B0704700BF002000401C21004017
:205FA00030B4144B1448154D4FF0A04100220324C3F80025C1F818474024C1F80845C1F85C
:205FC000202708240621C3F8245582B0C3F86C25C3F81445C3F80C15026001680191019C8B
:205FE000074A04200121C3F80005116002B030BC704700BF002000401C21004000E0D70130
:2060000008200040074B0849084A0020186082B01B680193019BD1F818051368C0B202B021
:20602000184700BF0821004000200040B02600204FF0A0434FF4F0310022C3F80815C3F848
:206040000C25704700B5104B93E8070085B001AB83E807000D491846FDF70EFE48B90C486A
:20606000FDF744FE60B90B4B01221A7005B05DF804FBFAF7ADF90648FDF738FE0028F2D0CC
:20608000FAF7A6F9EFE700BFE081000031600000DA260020DB260020024B1B7803B9704755
:2060A000FDF716BEDB260020034B1B7803B97047024B1878FDF740BEDB260020DA26002093
:2060C00053B94AB9002908BF00281CBF4FF0FF314FF0FF3000F06EB9ADF1080C6DE904CEF0
:2060E00000F006F8DDF804E0DDE9022304B070472DE9F047089D04468C46002B40F0838037
:206100008A42174647D9B2FA82F242B1C2F1200024FA00F09140974040EA010C94404FEA56
:206120001748230CBCFBF8F61FFA87FE08FB16C143EA014306FB0EF1994209D9FB1806F17C
:20614000FF3080F01981994240F21681023E3B445B1AA4B2B3FBF8F008FB103344EA034487
:2061600000FB0EFEA64509D93C1900F1FF3380F00581A64540F2028102383C4440EA064013
:20618000A4EB0E0400261DB1D4400023C5E900433146BDE8F08702B9FFDEB2FA82F2002ACD
:2061A00050D1CB1B4FEA174E1FFA87F80126B3FBFEFC210C0EFB1C3341EA034108FB0CF3DD
:2061C0008B4207D979180CF1FF3002D28B4200F2E9808446C91AA3B2B1FBFEF00EFB101193
:2061E00043EA014408FB00F8A04507D93C1900F1FF3302D2A04500F2D9801846A4EB0804F8
:2062000040EA0C40BFE78B4209D9002D00F0B1800026C5E9000130463146BDE8F087B3FADA
:2062200083F6002E4AD18B4202D3824200F2B880841A61EB030101208C46002DA8D0C5E9D8
:20624000004CA5E7C2F1200320FA03F6974001FA02F04FEA174ED9403043030CB1FBFEF6E0
:206260001FFA87F80EFB161143EA014306FB08F1994204FA02F409D9FB1806F1FF3C80F085
:206280008D80994240F28A80023E3B445B1A81B2B3FBFEF00EFB103341EA034100FB08F326
:2062A0008B4207D9791800F1FF3C73D28B4271D902383944CB1A40EA064678E7C6F1200CC4
:2062C00003FA06F422FA0CF31C4320FA0CF701FA06F34FEA144E21FA0CF11F433B0CB1FB34
:2062E000FEF91FFA84F80EFB191143EA014109FB08FA8A4502FA06F200FA06F308D961185A
:2063000009F1FF3048D28A4546D9A9F102092144A1EB0A01BFB2B1FBFEF00EFB101147EA45
:20632000014700FB08F8B84507D9E71900F1FF312ED2B8452CD90238274440EA0940A7EB70
:206340000807A0FB02894F45C64649461AD317D05DB1B3EB0E0267EB010707FA0CFCF240B4
:206360004CEA0202F740C5E9002700263146BDE8F0872E4628460BE70646E9E61846FDE6EE
:206380004345E5D2B8EB020E69EB04010138DFE70846D2E760468DE78146B9E7664675E723
:2063A00030464AE7ACF1020C394413E702383C4424E700BF704700BF38B5104B1D68AB6B37
:2063C0000446B3B9182000F095F80246A86320B90B4B0C48422100F05DF80B490B4BC0E981
:2063E00000130B4B83600B23838100210120C2E90401AB6B00221C615A6138BD00000020A8
:206400004C820000638200000E33CDAB34126DE6ECDE0500174B10B51C68A36BB3B918204B
:2064200000F068F8A06328B90246134B13484E2100F030F8124A134BC0E90023124B8360DA
:206440000B23838101220023C0E90423A16B0F480A694B690E4C504304FB0300A2FB0434A6
:206460005A1C044444F10000C1E9042020F0004010BD00BF000000204C82000063820000AC
:206480000E33CDAB34126DE6ECDE05002DF451582D7F954C1FB514461A46094B1B680546D4
:2064A000D8684CB1074B0091CDE9013406492B4600F00EF800F048FF044B1C46F3E700BF9A
:2064C00000000020DF820000EC8200001A8300000EB403B5014603AB054853F8042B006892
:2064E000019300F0B9F802B05DF804EB03B0704700000020024B0146186800F053B800BF19
:206500000000002037B5002948D051F8043C0190002BA1F10404B8BFE41800F085FD204A00
:2065200001981368154633B96360146003B0BDE8304000F07FBDA3420BD921686218934234
:2065400004BF1A685B68636004BF521822602C60ECE71A465B680BB1A342FAD911685518E5
:20656000A5420BD1246821445418A3421160DDD11C685B68536021441160D7E702D90C235F
:206580000360D3E7256861198B4204BF19685B68636004BF491921605460C7E703B030BD98
:2065A000B4260020F8B5CD1C25F0030508350C2D38BF0C25002D064601DBA94203D90C2345
:2065C00033600020F8BD00F02FFD21490A6814469CB9204F3B6823B92146304600F092FA65
:2065E00038602946304600F08DFA431C23D10C233360304600F01EFDE3E723685B1B17D45B
:206600000B2B03D923601C44256004E06368A2420CBF0B605360304600F00CFD04F10B0015
:20662000231D20F00700C21ACCD01B1AA350C9E722466468CCE7C41C24F00304A042E3D03C
:20664000211A304600F05EFA0130DDD1CFE700BFB4260020B82600202DE9F04F0D469DB000
:2066600014469846064618B183690BB900F01EFC894B9D421BD175686B6ED90705D4AB89D1
:206680009A0502D4A86D00F09CFEAB891B0701D52B69EBB92946304600F096FAC0B16B6ED3
:2066A000DC070ED54FF0FF301DB0BDE8F08F7B4B9D4201D1B568DFE7794B9D4208BFF56894
:2066C000DAE7AB899805EDD4A86D00F07BFEE9E70023099320238DF82930CDF80C80302395
:2066E000DFF8C0818DF82A304FF0010923469A4613F8012B0AB1252AF9D1BAEB040B0BD077
:206700005B4622462946304600F09FFD013000F0AA80099A5A4409929AF80030002B00F0FB
:20672000A28000234FF0FF32CDE905230AF1010A049307938DF853301A935446052214F80D
:20674000011B5848F9F75CFD049AD8B9D10644BF20238DF85330130744BF2B238DF853306D
:206760009AF800302A2B15D0079A544600204FF00A0C214611F8013B303B092B4ED9B0B19A
:20678000079214E0A0EB080309FA03F313430493A246D2E7039B191D1B680391002BBBBFBF
:2067A0005B4242F0020207930793B8BF049223782E2B0CD163782A2B35D1039B1A1D1B6866
:2067C0000392002BB8BF4FF0FF3302340593DFF8E4A0217803225046F9F712FD40B1402341
:2067E000A0EB0A0003FA00F0049B03430134049314F8011B2C488DF828100622F9F700FDF8
:2068000000283FD0294B1BBB039B073323F0070308330393099B3B44099367E70CFB0232E9
:206820000C460120A5E700230134059319464FF00A0C204610F8012B303A092A03D9002B77
:20684000C5D00591C3E70CFB012104460123F0E703AB00932A46164B04A93046AFF300809E
:206860000746781CD6D16B6ED90705D4AB899A0502D4A86D00F0A6FDAB895B063FF512AF23
:20688000099811E703AB00932A46094B04A9304600F012F8E4E700BF0C8200002C82000077
:2068A000EC8100001B83000025830000000000004B720000218300002DE9FF470C4691463F
:2068C000277E0C99782F80469A4604F1430207D8622F0AD8002F00F0D880582F00F0A38084
:2068E00004F1420684F842703AE0A7F16303152BF6D801A050F823F0516900006569000083
:20690000E1680000E1680000E1680000E168000065690000E1680000E1680000E1680000AA
