:020000040000FA
:2000000000000420610D0000890D00008B0D00008D0D00008F0D0000910D0000000000004C
:20002000000000000000000000000000930D0000950D000000000000970D0000990D000034
:2000400035260000B11B000001AB0000B53000009B0D00009B0D0000B92900009B0D00000E
:20006000118F00009B0D00005D4E0000AD2C00009B0D0000AD2B00009B0D00009B0D0000E4
:20008000793100009B0D00009B0D00009B0D00009B0D00009B0D00009B0D00009B0D00001E
:2000A0009B0D00009B0D00009B0D00009B0D00009B0D00009B0D0000000000000000000050
:2000C0009B0D00009B0D00009B0D00009B0D00009B0D00009B0D00009B0D00009B0D0000E0
:2000E0009B0D00009B0D00009B0D000000000000000000009B0D0000000000009B0D0000B8
:200100000000000000000000000000000000000000000000000000000000000000000000DF
:200120000000000000000000000000000000000000000000000000000000000000000000BF
:2001400000000000000000000000000000000000000000000000000000000000000000009F
:2001600000000000000000000000000000000000000000000000000000000000000000007F
:2001800000000000000000000000000000000000000000000000000000000000000000005F
:2001A00000000000000000000000000000000000000000000000000000000000000000003F
:2001C00000000000000000000000000000000000000000000000000000000000000000001F
:2001E0000000000000000000000000000000000000000000000000000000000000000000FF
:2002000001F0FF01102A2BDB10F0070F08D010F8013B013A8B422DD010F0070F42B3F6D1A4
:20022000F0B441EA012141EA014122F007047FF000070023F0E80256083C85EA010586EA51
:20024000010685FA47F5A3FA87F586FA47F6A5FA87F68EB9EED1F0BC01F0FF0102F007024C
:2002600032B110F8013B013A83EA010313B1F8D10020704701387047002D06BF35460338AF
:20028000073815F0010F07D1013015F4807F02BF013015F4C03F0130F0BC0138704700BF73
:2002A00010B5054C237833B9044B13B10448AFF300800123237010BDB809002000000000BB
:2002C00068E1000008B5034B1BB103490348AFF3008008BD00000000BC09002068E1000052
:2002E000A3F5803A704700BF174B002B08BF134B9D46FFF7F5FF00218B460F461348144AB7
:20030000121A0BF0A3FF0E4B002B00D098470D4B002B00D098470020002104000D000D4808
:20032000002802D00C48AFF3008000F02BF82000290000F031FA00F011F800BF0000080016
:20034000000000000000000000000420B809002008100120000000000000000008B5074B50
:20036000044613B10021AFF30080054B1868836A03B19847204600F029F800BF00000000A6
:2003800088C5000070B50D4D0D4C641BA4100026A64209D10B4D0C4C0CF0EAF8641BA4105C
:2003A0000026A64205D170BD55F8043B98470136EEE755F8043B98470136F2E7B009002061
:2003C000B0090020B0090020B4090020FEE700BF00B585B00346002101AA44F20100CDE9FE
:2003E0000111039300F004F805B05DF804FB00BF72B6094B1B68DB0700D500BEBFF34F8F9D
:200400000649074BCA6802F4E0621343CB60BFF34F8F00BFFDE700BFF0ED00E000ED00E0D4
:200420000400FA0572B6024A1368013313607047D4090020034A1368013B136003B962B624
:20044000704700BFD409002010B50446006830B1002108F0EFFB54F8040F0028F8D110BDB1
:2004600010B590F84C10094A013180F84C10044603468021203000F0D9FA054B22461978EA
:20048000BDE81040002008F06DBC00BF61040000F10F01202DE9F041038804463BB1B3F531
:2004A000867F0AD182290DD00120BDE8F0814FF4867323800120BDE8F081002303800320BE
:2004C000BDE8F08100F000FDBFF35F8F1649174B0E6800220A601F781A70FFB2BFF35F8F44
:2004E000134D00F0F5FC28680028E0D0DFF8448003E055F8040F0028D9D090F8463026FA86
:2005000003F3DA07F5D590F8453047FA03F3DB07EFD500F0B1FA0028EBD02B684246184669
:20052000022100F083FAE4E7E8090020DE0C0120A40100209505000010B4094A094C1368FE
:200540001943116021780346012202FA03F30B43DBB2237004485DF8044B08F025BC00BFE1
:20056000E8090020DE0C0120B801002010B5044690F8461090F8450000F064FC10B994F827
:20058000440010BD01280ABF94F84400002080F0010010BD70B5044600F06EFA00B970BD7D
:2005A00004F12006304600F067FA05462046FFF7DDFF01280ED00028F1D1002DEFD1304682
:2005C00000F040FA0D4B224628461978BDE8704008F0C8BB002DE2D0002530462346084A2D
:2005E00084F84C507E2100F021FA064B284622461978BDE8704008F0B5BB00BFF00F0120E5
:2006000061040000F20F0120F8B508F00BFB304B304C187008F006FB2F4B304F187008F0B7
:2006200001FB2F4922682F4B08700025FF2139727B60FD60002A42D02B4E09E091F8460035
:20064000F9683A72834054F8042F0B43FB60B2B392F8463092F84510926C03F01F0343EA1E
:2006600041131F2BC6BF03F01F0331464FF0A04103F5E07342F08C0241F82350236893F8DE
:20068000461093F8450000F09BFB226892F8463092F8450003F01F0343EA4010012102F0AF
:2006A000E5F82168387A91F8452082424FF00103C4D0FF28C2D054F8042F002AC8D10B484B
:2006C000002108F0B7FABDE8F840044800F0CEBBF20F0120A4010020F00F0120D8090020A6
:2006E000F10F01203905000000030050B801002030B5174B83B000221A6001F01BFF00BB93
:20070000002001F033FF134B134A93E80300FF250090ADF80410062400231048ADF8005056
:2007200069468DF802408DF8043002F055FA58B901210A4802F0A4FA084802F095FA03B0B0
:2007400030BDFFF745FEDBE7FFF742FEF0E700BFEC090020DCC500008D070000E4C50000F2
:20076000014B1868704700BFEC09002008B5064A13680133136000F0C1FA00B908BDBDE825
:20078000084000F09BBA00BFEC090020042800D07047FFF7EBBF00BF10B54F4C08F04EF947
:2007A000FFF7A6FF08F0C4FB08F066FA4B48002108F040FA00F000F90AF0C2F900F0CAF958
:2007C00008F0ACFC08F042F908F010FB00F0A4FC00F0B4FC2368022B11DC08F053F94048A2
:2007E000FFF732FE0AF0D6F908F060FA04460AF0D9F914F0FF0FF7D108F052F9F4E7394A27
:2008000039493A4808F068F9394808F0E1FA2368022BE2DD334A3449344808F05DF9354B6C
:200820003548196808F058F92368022BD5DD2D4A2D492E4808F050F9304B3148196808F0F6
:200840004BF92368022BC8DD264A2749274808F043F92C4B2C48196808F03EF92368022B21
:20086000BBDD204A2049214808F036F927484AF6CD3108F031F92368022BAEDD194A1A49A5
:200880001A4808F029F922481A2108F025F92368022BA2DD134A1449144808F01DF91D4B5E
:2008A0001D48198808F018F92368022B95DD0D4A0D490E4808F010F9184808F00DF9236812
:2008C000022B8ADD164800F0EDFB2368022B84DD0A2008F077FA80E7E8010020D801002039
:2008E000DCCA0000ECC50000F4C50000FCC500000CC60000FCCB000030C60000CCCB000001
:2009000040C600009CDA00004CC6000058C6000074C60000CC0C012094C60000A4C6000034
:200920000C0D0120F0B5038883B0054633B14A2B18D188291BD0012003B0F0BD1B4800F01D
:2009400039FB044630B1A168201D00F0BDF92468002CF8D1164B01221A704A2301202B8084
:2009600003B0F0BD00230380032003B0F0BD0F48019200F01FFB04460028EED0019A031D0F
:200980009A4205D02468231D002CE6D09A42F9D10648084E214600F061FBD4E90523376877
:2009A00032600BB1E06998473760D6E7F0090020DF0C01200CF2002010B5064B06480024A2
:2009C0001C7000F0F3FA21460448BDE8104008F031B900BFDF0C0120F0090020C801002057
:2009E00070B50E4C049E25784661C0E90623044635B9A1600A482146BDE8704000F0DCBAF3
:200A0000084D094B2E682B60043000F05DF92E6021460348BDE8704000F0CEBADF0C012079
:200A2000F00900200CF20020C801002010B5044C82B024680094FFF7D3FF02B010BD00BF29
:200A40000CF2002010B50A4B1B7804463BB9C0E9033321460748BDE8104000F0FFBA043026
:200A600000F054F921460348BDE8104000F0F6BADF0C0120F009002038B50C4B1D780446AA
:200A80006DB90B4800F096FA38B1A04202D10BE0844209D000680028FAD1012038BDBDE81F
:200AA0003840043000F024B9002038BDDF0C0120F009002010B50446C0B209F0DBFF2046C9
:200AC00010BD00BF70B570B10E46451E002404E0A64206D009F0CEFF013415F8010F002887
:200AE000F6D1204670BD0446FBE700BF38B5094C238863B1054602E034F80A3F3BB1A11C65
:200B0000284600F04BFA0028F6D0208838BD002038BD00BFCCC6000010B50A480A4CFFF7DE
:200B2000E5FF0A4A0A4913880880002121603BB1012332F80A1F184601330029F9D12060FD
:200B400010BD00BF0C0D0120F4090020CCC60000CC0C0120704700BF10B5FFF701FE0B4BA1
:200B60001A68D2E9003192680B44191A52B1D2E9003423441B1A9268994228BF1946002AB8
:200B8000F5D14318024A136010BD00BFFC090020F80900202DE9F843038805465BB3592BEA
:200BA0002CD187292FD0822920D12C4FDFF8B4803C684FF00009CCB1002603E0A36826467E
:200BC000A3B11C46204609F047FF0028F6D0E0682246882108F0C6F803464046002B2AD0C9
:200BE00008F0E2F8A3682646002BEAD159232B800120BDE8F883194A1360F7E70023038004
:200C00000320BDE8F883154F3968002019B9EDE789680120D9B1CB689342F9D000B139600F
:200C20008B68002BE2D0D868904207BF9B688B6019469B68F5E7E360A3686EB1B3603B68BD
:200C4000C4F808902BB1FFF787FF3C68B3E73960CCE7034A1360C9E73B60F1E7FC09002056
:200C6000F8090020D801002010B50446104808F09BF81049E3680A684BB142B194420FD0AE
:200C8000134601E09C420BD09B68002BFAD10A4BA2601B68E3600C60BDE81040FFF75CBFD9
:200CA000054B1B68E360BDE81040FFF755BF00BFD8010020FC0900200CF20020014808F0E3
:200CC00073B800BFD801002010B5044609F0AEFE2046BDE81040FFF7C7BF00BF10B50446D8
:200CE00009F0ACFE2046BDE81040FFF7BDBF00BFC068B0FA80F04009704700BF024B1868F7
:200D0000003818BF01207047FC09002010B5124B19688142044614D00B462BB19A68A24220
:200D200006D01346002BF9D10023C4E9023310BDA2689A6049B1FFF70FFF0023C4E90233B6
:200D400010BD82681A60002AF5D1044B00221A600023C4E9023310BDFC090020F80900206F
:200D60000649074A074B9B1A03DD043BC858D050FBDC08F0B9FFFFF7B7FA000074E10000EA
:200D800000000020B8090020FEE7FEE7FEE7FEE7FEE7FEE7FEE7FEE7FEE7FEE700F01F034E
:200DA0000121C0F34710994000F066B808B501F0C1FC00B108BDBDE8084001F071BC00BF75
:200DC00030B583B01446022301F01F0100228DF8063014F00C0341EA4015ADF8042006D05C
:200DE000042B25D0082B27D00C2B02D103238DF8043014F0030304D0022B15D0012B02D1CD
:200E000003238DF805300E4A01A9284601F09CFC2306284603D401F095FD03B030BD012146
:200E200001F024FD03B030BD01238DF80530EAE701238DF80430DCE702238DF80430D8E714
:200E40009D0D000001F01F0141EA40101F28CABF054B4FF0A04300F01F00D3F8101521FA00
:200E600000F000F001007047000300500146014800F0A2B8000A002070B505460C480E466B
:200E800000F098F890B1044601E0246874B1237AAB42FAD1E36816EA0301F6D06368284612
:200EA000002BF2D098472468002CF0D170BD00BF000A002008B5034800F078F8BDE8084082
:200EC000FFF774BF000A0020EFF3108072B6704780F31088704700BF70B41A4A1A4D0023DB
:200EE000012440FA03F1C90712D59178B9B11178567801F01F0141EA46111F29C6BF01F0CD
:200F00001F012E464FF0A04604FA01F1C6F808150133042B02F10302E3D170BC70471178D2
:200F2000567801F01F0141EA46111F29C6BF01F01F012E464FF0A04604FA01F1C6F80C150A
:200F4000E6E700BFBCC50000000300500E4A30B40E4D02F10C0403201378517803F01F030B
:200F600043EA41131F2BC6BF03F01F0329464FF0A04103F5E0730332944241F82300EBD10F
:200F800030BC0F20FFF7A8BFBCC50000000300500B684A6842600360704700BF08B508227E
:200FA0000BF05CF9B0FA80F0400908BD00230360704700BF006870470368DBB110B40024BF
:200FC00000E0134699420FD01A681C46002AF8D100230B600368CBB11A461B68002BFBD1F8
:200FE00011605DF8044B70470A686CB1226000221A60EDE700230B6003684BB11A461B68CC
:20100000002BFBD1116070470260F0E70160E8E70160704730B405684DB12B46002400E06C
:201020001346994207D01A681C46002AF8D10D6030BC016070470A683CB1226000221A60E0
:2010400005680D6030BC016070470260F6E700BF03680BB11A6802601846704703689BB1DD
:2010600010B4002400E0134699421A6805D01C46002AF8D15DF8044B704734B122600022E4
:201080001A605DF8044B704770470260F7E700BF03682BB100201B680130002BFBD17047FC
:2010A00018467047F0B170B50024104E054654B1E3070DD5295D304607F00EFD072C10D0A6
:2010C0000134002CF4D12978304607F005FDF7E72E2007F077FE295D304607F0FDFC072C23
:2010E000EED170BD024807F0F7BC00BFE0C90000D0C9000010B504464288406800210BF072
:20110000A5F823886288A06802FB03F2BDE8104000210BF09BB800BF054B10B51B68984709
:20112000044B5B689847044BBDE810405B681847FCCA00009CDA0000CCCB000010B5144864
:20114000144C07F0C9FC144A1449154807F0C4FC144807F0C1FC144807F0BEFCFFF7DCFCB9
:201160002188124807F0B8FC238803B110BD104807F0B2FC084A0F49094807F0ADFC0948AC
:2011800007F0AAFCBDE810400B4807F021BE00BFE8C90000CC0C0120F0C90000F8C90000B1
:2011A000FCC50000FCC9000004CA00004CDE000024CA00002CCA000034CA000010B5034CBB
:2011C000636898472369BDE8104018479009002070B5058884B0044635B1DA2D45D18229EE
:2011E0003ED0012004B070BD2B4807F075FC2B4A2B492C4807F070FC2B4807F06DFC2B48FE
:2012000007F0E6FD244807F067FC244A2449254807F062FC244807F05FFC254807F0D8FD9A
:20122000244B1B689847244809F0FAFB234B1E7806B309F0DBFB064609F0E6FB039009F045
:20124000E9FB0399034606F10902701CCDE9005507F0E2FA1A4807F049FB1A4B1B699847F4
:20126000DA230120238004B070BD00230380032004B070BD144807F02FFC084A13490948A5
:2012800007F02AFC084807F027FC114807F0A0FD0220268004B070BD4CCA000054CA0000FD
:2012A000F4C50000FCC50000FCC9000058CA000064CA000090090020D5120000F50F0120DA
:2012C000BD1100009CDA000080CA000088CA00008CCA00002DE9F04F83B0FF29009104464D
:2012E00017461D463FD8002D3AD0009EDFF8B8B0DFF8A8A0013D57FA85F3082E5FFA86F8D0
:20130000019307F1FF3728BF082617F8012F4146204607F0E9FA584607F0DEFB19491A48BE
:20132000524607F0D9FB194807F0D6FB3978184807F0D2FB009B6BB1164D4FF0000914F8DE
:20134000091009F1010928465FFA89F907F0C4FBB145F4DB0A2007F035FD019B9F42D4D137
:2013600003B0BDE8F08F0C4807F0B6FB0B4A0C49054807F0B1FB054807F0AEFB094807F0CB
:20138000ABFBB0E7F4C50000FCC50000FCC90000C0CA0000CCCA000024CA000054CA0000A5
:2013A0002CCA0000A0CA00004CCA000008B5044B1B699847034B0022C3F8FC2F012008BD0C
:2013C000DCCB000000100040A1B1182810D8DFE800F00D770F0F6E65605B453F3A0F0F0FCA
:2013E00036322E2A0F26221E1A1713000020704701207047022070477D230B60002070470A
:2014000000200860704710230B60002070470A230B600020704720230B60002070470323FE
:201420000B600020704708230B6000207047D8230B60002070471A230B60002070470B2313
:201440000B6000207047244B1B780B6000207047224B93F900300B6000207047204B214AC5
:20146000012082B018601368002BFCD00020106012681D4B0192019AD3F8483503F07F03D2
:201480005B420B6002B07047184B5B790B6000207047164B5B780B6000207047134BDB783B
:2014A00000200860002BA1D001230B6070470F4B1B7800200860002B98D004230B60704771
:2014C000094B0B4AD3F80835A2FB03239B080A33DBB20B6000207047E00C0120E10C0120CE
:2014E000141000401C110040001000400C020020CDCCCCCC0120704770B582B0FFF7E4FC67
:20150000BFF35F8F1C4B1B78ABB11C4B1C4902224FF0FF34C1F80843C3F88021C3F88020B8
:20152000BFF34F8FBFF36F8FBFF35F8F02B0BDE87040FFF7CDBC134903F0FF020A6009681A
:20154000114B019101991A601A680D490B4B00924FF0FF3502224FF44054009EC1F80853A9
:20156000C3F88021C1F804431A60BFF35F8F02B0BDE87040FFF7ACBC0C02002000E100E0A1
:20158000001000403011004034110040144BD3F8FC0F28B1D3F85035DBB2032B01D00020EB
:2015A0007047104B1B7803F0FF0073B10E4B1B78053B7A2BF3D80D4B1B68002BEFD10C4BB7
:2015C0001868B0FA80F040097047074A1378053B7A2BE5D892F8800080F00100704700BF02
:2015E000001000400C020020080A002030110040341100400C2801D001207047042A05D154
:2016000021B1034B1B680B6000207047022070478C0A002070B51C4CD4F85055EDB2032D89
:2016200082B02BD0194B1A481A4AC4F804051A49C3F8102501264FF00062C3F81415C3F8D4
:201640000465C3F80425FFF757FFD4F80032134A43F01003C4F80032D4F80032D26843F4F3
:201660000023C4F800329047022D09D00C4B0D4A002119601B680193019B166002B070BD2A
:20168000094B1E6002B070BD0010004000F00140080A0020381100404C800040DCCB0000AA
:2016A00058110040041000400810004070B52F4D2F49304A304B00242C6084B02D680095B9
:2016C000009D0C600968019101991460126802922A4D029A1C6029781B6803934B1F7A2B8A
:2016E000039A38D88C1E2246691C0AF0C5FD2B195B783F2B2DD89B00DBB2214E214A3370BF
:20170000D2F84835204A03F07F035B425BB299B20420137007F076F93178032007F072F973
:201720001A4B2A781A491A74D1F84C055860D1F8481599605200DA605D6810488122002153
:20174000023D1D600AF082FDFFF764FF204604B070BDFF23D1E78122214628460AF076FDF5
:20176000FFF758FF204604B070BD00BF381100400C1100403411004030110040080A0020F8
:20178000E00C012000100040E10C01208C0A00200080004010B5038804461BB340F2E232BA
:2017A000934224D1822901D0012010BD124A1378053B7A2B16D8114B1B6813B992F8803056
:2017C00083B109F0EFF907F0EBF807F0B7F88021FFF76CFF002805DD80B207F0A9F8084B4B
:2017E000DB68984740F2E2332380012010BD00230380032010BD00BF080A002030110040E7
:201800009CDA000070B4164B1649174C0F22C3F810258A780A3A02EB8202C3F808250879CA
:20182000CD798A794979120642EA0522024342EA0142C3F86C2640F2022600250B48C3F8A4
:2018400034657F2140F20122C3F83845C3F83C55C3F81405C3F81815C3F8502670BC7047A6
:20186000001000400C020020211001000800000608B5084BD3F8FC2F1AB1FFF7CBFE0120F9
:2018800008BD0122C3F8FC2FFFF7BCFFFFF7C2FE012008BD0010004030B585B0FFF7E8FFE6
:2018A000104A11491148124C0023136015680395039D0B600D680295029D036003680193FA
:2018C00001230198236001E00B6813B91368002BFAD0044A044B10681B68B0FA80F040093D
:2018E00005B030BD48110040441100404C1100402C10004070B50E46072860D8DFE800F068
:2019000019255F5F54414804314A3248C9B25171D0F8FC3F5BB11179D479937952791B06DA
:2019200043EA04230B4343EA0243C0F86C36002070BD012947D0002943D1274B1B69984799
:20194000244BC3F8FC6F304670BDA1F10B030F2B37D81F4B1F4DCAB29A70D5F8FC3F002BD7
:20196000E5D01D4B1B699847A6F10A0101EB81010024C5F8FC4FC5F80815FFF779FF2046FD
:2019800070BD31F001001CD1114BC9B2D97070BD0F4A104BCEB25670D3F8FC2F002AC6D00E
:2019A000C3F80C65002070BD31F0070409D1084BC1F380011970FFF79FFD204670BD012051
:2019C00070BD022070BDFFF753FF002070BD00BF0C02002000100040DCCB00007D2801D993
:2019E0000120704730B5264C85B0FFF741FFE378002B3ED16378234A234CDBB20121C4F896
:201A00000C351160D4F85035DBB2022BFAD11F4A1F4BC4F80435002313601168019101993B
:201A20001366116E029102991A4D9364936C0393AB68039A9847D4F80032012243F4802303
:201A4000C4F80032226007F057FA6FF002031C1A07F052FAE042FBD40B4AD2F85035DBB2CF
:201A60000B2BFAD02B699847FFF7D4FD002005B030BDFFF711FF0028BCD10220F7E700BFF0
:201A80000C0200200C100040001000400C110040A00A0020DCCB00007D2910B50C4607D802
:201AA00001460648A31C00F8013B22460AF0E4FB2046BDE81040FFF791BF00BFA00A002033
:201AC00010B51C491C481D4A1D4C00230B6003704B6023708B6082B0CB600B7413601368B4
:201AE00000934FF080430121009819601368002BFCD0002414601368019321461148019BA9
:201B000007F098F8214681220F480AF09FFB0F4B1B6898470E4B0122C3F8FC2FFFF772FEC5
:201B20000C4A1378DBB21370FFF7E6FC204602B010BD00BF8C0A0020E00C01200001004034
:201B4000E10C0120FC010020080A0020DCCB0000001000400C0200207D290A4601D9012012
:201B6000704708B501460448931C00F8013B0AF083FB002008BD00BFA00A0020074A1378B9
:201B8000053B7A2B07D8064B1B6813B992F880007047012070470020704700BF080A002080
:201BA00030110040014B1860704700BF040A0020174B1B6803B11847164B1B7803F0FF025C
:201BC00053B900B5144B196883B031B9134B1A688AB903B05DF804FB70471A601B680093D6
:201BE0000F48104B009A012283F8802003B05DF804EB07F0D9B819601B6801938122094858
:201C0000019B0AF023FB03B05DF804EBFFF702BD040A00200C020020301100403411004002
:201C2000FC010020080A0020002170B40A46050E25FA02F3C2F1070403F001030132A340CE
:201C4000082A41EA0301F3D1002409062246C0F3074626FA02F3C2F1070503F001030132C6
:201C6000AB40082A44EA0304F3D1002541EA04412A46C0F3072626FA02F3C2F1070403F0A3
:201C800001030132A340082A45EA0305F3D1002441EA0521C0B2224620FA02F3C2F10705E0
:201CA00003F001030132AB40082A44EA0304F3D141EA040070BC7047002170B50A460446F2
:201CC000C32525FA02F3C2F1070003F0010301328340082A41EA0301F3D1002009060246C5
:201CE000C22626FA02F3C2F1070503F001030132AB40082A40EA0300F3D1002541EA00415F
:201D00002A46C12626FA02F3C2F1070003F0010301328340082A45EA0305F3D1002041EA38
:201D200005210246C02626FA02F3C2F1070503F001030132AB40082A40EA0300F3D12B4ACE
:201D400008430021C2F82405C7250A4625FA02F3C2F1070003F0010301328340082A41EAE0
:201D60000301F3D1002009060246C62626FA02F3C2F1070503F001030132AB40082A40EAF3
:201D80000300F3D1002541EA00412A46C42626FA02F3C2F1070003F0010301328340082AA3
:201DA00045EA0305F3D1114E11482943C6F82815FFF73AFFC6F81C0505460E48FFF734FF31
:201DC000C6F820054CB9C6F81C55084B00210122C3F82C15C3F8302570BD012C0CBF0648D6
:201DE0000648FFF721FFC6F81C05EEE70010004050402301EFCDAB8960501302323794BF56
:201E00000338C0B20C289ABF024B53F820000020704700BF90CB00002DE9F043044683B019
:201E20004ABB017983680F2914BFFF217D21197207797B1F012B3ED90F2F6ED0032F65D0A4
:201E4000042F00F085804FF000084FF000091546A368E561187AC00109F01CF942464B46A5
:201E600008F0ACFE09F090F9064620620F2F04BF4035E56113E0836819720779052F37D090
:201E8000062F57D0CE0100253046E56109F002F9032F63D1062F266225D1B335E561A369EF
:201EA000626A13441D442E4406F5FA40C4E90C6003B0BDE8F083062F36D0344B00224FF4F4
:201EC0002865A168E561087AC001CDE9002309F0E1F8DDE9002308F071FE09F055F9062F6C
:201EE00006462062D9D0052FC0D18335E561D6E74FF42075C801E56109F0CCF8234B0022B7
:201F000008F05CFE09F040F90646C3E7DFF888904FF480754FF000089AE7DFF878904FF436
:201F200000754FF0000893E74FF4906500224FF08043C6E740F23345C801E56109F0AAF80E
:201F400002460B4608F06AFF09F01EF90646A1E7DFF83C9080254FF0000879E7042F07D1A9
:201F60000B4B002208F02AFE09F00EF9064691E70F2F08BF074B4FF0000218BF002308F07B
:201F80001DFE09F001F9064684E700BF000020400000E03F000010400000F03F2DE9F8436E
:201FA000A64F9DF820604FF0020C0D4604461146C7F880C0BFF34F8FBFF36F8FA048DFF8D8
:201FC000A892DFF8A882DFF8A8E24FF0FF32C0F808230022C7F880C187F80123C0F8FC2F6A
:201FE000012741F60372C0F8FC7F4FF0804CC9F81025F02288F80020C0F80C255022C0F814
:202000000825C0F85425C0F85076CEF84075CCF87870002C00F0F6808A4F22793C60C0F863
:2020200010252279062A00F28580042A00F28480033A012A05D8D0F8002242F00202C0F868
:202040000022002B00F08880A068002202702079A768A0F10600B0FA80F040097870A0680D
:202060008270A0684172A0680172A06882711A462046FFF7D1FED4E90623D4E908011344AF
:2020800003440B4403F5FA41C4E90C31A268937850781178D7781B0443EA002310790B4392
:2020A000517943EA805343EA01639079D179002F43EA417314BF4FF480110021002843EA45
:2020C000010318BF4FF080605D4908BF00200343C1F81435937A577A107AD17A1B0443EA32
:2020E0000723034309B143F08073127B0AB143F00073534AC2F818352369A189C2F8341545
:20210000C2F838356369C2F83C352379062B43D8042B7DD8033B012B40D84B4A136823F090
:202120000043136023790F2B38D1454BAE22C3F8602636E00F2A84D1414AD2F8000240F43A
:202140008010C2F80002D2F8500640F40070C2F85006002B7FF478AFA26808201070A068E0
:2021600001224270A0688370A06843722779A0680F2F14BFFF277D27077220790F2844D0F2
:20218000A268937122790F2A4FD0304A106801270770126851706AE70F2BBED03046FFF7ED
:2021A0008BFD274A2A4BC2F80455D2F80002294C29492A4D2A4E40F00100C2F80002D2F845
:2021C000000240F01000C2F80002C3F870552548C3F874154FF4E045C3F88065C3F8841574
:2021E000C3F87845A4F58074C3F87C15C3F80455C3F86005C3F86425C3F86805C3F86C4582
:20220000BDE8F8830F4B1C60CBE7A0688271B9E70D4A136823F0004323F47F4343F0004304
:2022200043F44443136023797DE7A268074801279771227B00680A44027018E700E100E05F
:2022400000100040140D012040170040AC0D012000F001400411004044A000400011004080
:202260000C11004048A1004000600040AC09002000E00140204A70B40224C2F88040BFF362
:202280004F8FBFF36F8F1D4B1D491E4D1E484FF0FF36C3F80863C2F880414FF480624FF494
:2022A0000064C1F80825C1F8084500220121C5F84821C3F810215A601A601961C3F80C21E2
:2022C000C3F80421C3F80821C3F80021C3F83821C3F86C21C3F83021C3F83421D0F81015F9
:2022E00021F4F85121F00301C0F81015C3F81021C3F8FC2F70BC704700E100E000100040C8
:2023000000F0014000A00040006000401B4A022070B4C2F88000BFF34F8FBFF36F8F184B84
:202320001849194D194C4FF0FF36C3F80863C2F880014FF480624FF40060C1F80425C1F839
:20234000080500220121C5F84821C3F810211961C3F80C21C3F80421C3F80021C3F83821E8
:20236000C3F86C21C3F83021C3F834212178C3F80C15C3F8102170BC704700BF00E100E035
:202380000010004000F0014000A00040AC09002070B5144606460D46FFF7B8FF02F02EFD1F
:2023A000231A002B16DB0E4A0E490120106100230B20C1F84831C1F84845C2F80855C2F8EC
:2023C0005455C2F80465C2F80403074A02211160184670BD054A536D01335365022070BDB6
:2023E0000010004000A0004000E100E04C0D0120044B01221A61C3F80805C3F854055A60EF
:20240000704700BF00100040184A022070B4C2F88000BFF34F8FBFF36F8F154B1549164CB4
:202420004FF0FF35C3F808534FF40066C2F880014FF4806500220120C1F80465C1F808558C
:20244000C4F84821C3F810211861C3F80C21C3F80421C3F80821C3F80021C3F83821C3F89B
:202460006C21C3F8102170BC704700BF00E100E00010004000F0014000A0004070B51446A0
:2024800006460D46FFF7C0FF02F0B8FC231A002B13DB0D490D4A0020C1F84801C1F84845D7
:2024A0000B21C2F80855C2F85455C2F80465C2F80413074A0221116070BD064A136D01336C
:2024C0001365022070BD00BF00A000400010004000E100E04C0D0120044AD2F8183523F093
:2024E000FF030343C2F81835704700BF0010004010B568B90E4CA368012262703BB1D3E9DF
:2025000000230020A2609847A368002BF7D110BD0128FCD1064C2369A070002BF7D0D3E93A
:2025200000230120226198472369002BF7D110BD200B002010B50B4C237882B013B185200C
:2025400002B010BD08486360A3602361E36000F03BF8019000F044F801980123237002B03D
:2025600010BD00BF200B0020F124000038B5154DAB78044673B110B1436801209847002003
:20258000FDF750FFEB680133EB600020BDE83840FDF750BF03F0FF00FDF744FF64B12A6915
:2025A00042B1944208D0134601E09C4204D01B68002BFAD122602C61EB68002BE2D100F0E5
:2025C00021F8DFE7200B0020044A137923B90121106091801846704785207047340B0020A8
:2025E000074B1A68D20704D4C02283F8002301221A604FF080430122C3F81825704700BFA6
:2026000000E100E010B4094B094A0021196083B01B680193019C4FF0804102200123C1F80E
:202620000403136003B05DF8044B7047040100400800004010B5174B1A6882B062B1002176
:20264000154A19601B68507900934FF080410123009CC1F8083398B1104B1A68BAB100225C
:202660001A601B6801934FF0804202210A4B0198C2F808131B68012002B0BDE81040184738
:20268000116853718847054B1A68002AE7D102B010BD00BF00010040340B00200401004057
:2026A00030B41F4C94F86A3082B0002B33D104F12F03204604F15F01FF2203F8012F8B4249
:2026C000FBD14FF0FF3222600123072B88BFE11803F1010340F8042F88BF81F858200C2BD4
:2026E000F3D11049104B0020C0228880606683F8062340221A600D4B0D4A18601B680193D4
:20270000019D01214FF0004384F86A10C2F8043302B030BC7047082002B030BC704700BFFF
:202720003C0B0020A00B002000E100E07C61004000600040034B93F86A00003818BF012076
:20274000704700BF3C0B0020F0B4454F3B1893F93030002B5DDA91F802C0CCF3400CBCF1C0
:20276000000F0CBF0823002307EB8304A4F104040CBF0C26082602E001339E424CD954F889
:20278000045F0135F8D13C1847F8232084F83030BCF1000F4FD08A7854071AD4D5074ED401
:2027A0001F284C7887BF2F4D00F01F0202464FF0A04502F5E072A40045F822402A4DC40800
:2027C00000F0070C2E5D012202FA0CF232432A558A7812F0020222D09B0003F1804303F516
:2027E000C0430978D3F8104524F44F3424F44074C3F8104502020904D3F8100501F4403167
:2028000002F47C520A430243C3F810250020F0BC70470820F0BC70470420F0BC7047083B9A
:202820001F44097897F8603043EA811387F860301046F0BC7047FA1882F85800ABE71F284F
:2028400087BF084A00F01F0404464FF0A04202EB8402D2F8004724F00204C2F80047ADE72F
:202860003C0B002000030050A00B002070B4324C251883B095F93030072B22DD234493F8B0
:2028800058309B09032B46D0012B0CBF4FF400324FF440321F288ABF284B4FF0A04300F092
:2028A0001F0003EB8000D0F8003723F44033C0F80037D0F800371A43C0F8002703B070BCF9
:2028C0007047DAB2072AF9D8980000F1804000F5C04003F140029200D0F8106592B202F139
:2028E000804202F5C04246F00106C0F810650020106012680192019A0029DFD095F93020C5
:2029000054F82220002AD9D00D49012202FA03F3C1F80433D2E71F288ABF084A4FF0A0423F
:2029200000F01F03D2F8102598BF0346DA4002F0010202321204ADE73C0B0020000300503F
:2029400000600040194B034493F93030072B13DD1F288ABF164B4FF0A04300F01F0003EB0E
:202960008000D0F8003723F44033C0F80037D0F80037C0F800377047DAB2072A14D810B44D
:202980009A0002F1804202F5C0420A4CD2F81005012120F0010001FA03F3C2F81005C4F80B
:2029A00008335DF8044B7047704700BF3C0B002000030050006000402DE9F04F002289B001
:2029C000CDE9022216461546704B714C7148012204E0043383424FEA420211D01968012929
:2029E000F7D1D4F804131142F3D01D60196800910433834246EA020600994FEA4202EDD17F
:202A0000654B1A68012A07D016F0FF0F17D1002E32DB09B0BDE8F08F00221A601B680193BB
:202A20004FF0A042019BD2F810255C4B0292D3F81035039316F0FF0F1ED046F00046584FD4
:202A400001250024A30003F180432E4203F5C0434FEA45050BD0D3F8100557F82420D3F8CB
:202A60001015C0F30520C1F3014102B190470134082CE7D1002ECCDA4FF0FF33494D0DF1DF
:202A8000100ACDE906330022CAF804200492A5F16408454C0027012614F9010B431C32D034
:202AA000C0F3C20E08AB03EB0E0C00F007031CF8081C06FA03F31942C2B200F03F0022D0C0
:202AC00008EB0009910999F9309058F82990B9F1000F4CD003294CD01F288BBFDFF8BCE0E4
:202AE0004FF0A04E02F01F0202460EEB82021CF818ECD2F800C71EEA030FCCF3014C1BD116
:202B0000BCF1030F3CD0A542C6D1002F81D04FF0A0430299D3F81035204A9942D2F81025DB
:202B200003D1039991423FF474AFDDE90401CDE90232CDE90601ACE7BCF1020FE3D1032959
:202B400004D0B9F1000FDED0C847DCE74FF4403CD2F8003723F44033C2F80037D2F800372C
:202B600001374CEA0303FFB2C2F80037E9E70329C9D11AF80EB04BEA030B0AF80EB0ABE744
:202B80000329DED14FF4003CE2E700BF0061004000600040206100407C61004000030050E1
:202BA0003C0B0020A00B00209C0B0020074B0849084A0020186082B01B680193019BD1F8E1
:202BC00008051368C0B202B0184700BF00D1004000D00040A80B002070B443791E4C1F4E80
:202BE00003EB430546F82320655D8DBB90F904308A78002B24DB03F1604303F561435201A5
:202C0000D2B283F8002390F90430002B07DB144D03F01F0601225B09B24045F823200368EB
:202C20000A88C3F8082543790879C97803EB4303E218012550709170E554002070BC70474B
:202C4000084D03F00F0352011D44D2B22A76DAE7082070BC704700BFAC0B0020B00B002005
:202C600000E100E0FCEC00E00368044A01211960437903EB43030221D1547047AC0B0020B1
:202C800010B403680022C3F8002183B0D3F80031026801930123019CC2F8443311B10268BC
:202CA000C2F8043303B05DF8044B70472DE9F041274F284EDFF8A08084B000244FF480359B
:202CC000D7F804332B4211D056F824200023E0B262B1C7F84853C7F8085346F8243056F8F2
:202CE00024300393D8F80030039A98470134032C4FEA4505E4D1164BD3F80423D10702D5D0
:202D0000D3F80021C2B9124BD3F80423920710D5D3F804216AB10022C3F80421D3F8042182
:202D20000D4B0192019A1B68052004B0BDE8F041184704B0BDE8F0810022C3F80021064A64
:202D4000D3F80031029304201368029A9847DAE700B0004040B10040B00B002010B44A6B92
:202D60008C6AA24203460AD2486A825CC3F81C254B6B5DF8044B013301204B63704791F82B
:202D80002C0038B90A6A52060AD4012058615DF8044B70470122DA6100205DF8044B70475E
:202DA0000122DA615DF8044B81F82D20704700BFF0B591F82F308BB00D460446ABB9D0F844
:202DC00024214E6B8F6A002A32D0C0F82431D0F8243104930123049A436181F82F30BE42D1
:202DE00016D0012318460BB0F0BD0023C0F82431D0F824210392039AC0F81C31D0F81C218A
:202E00000292029AC0F80831D0F808310193019BD4F80431002BE4D00023C4F80431D4F8A0
:202E200004210992099A85F82D3018460BB0F0BDD0F81CC1BCF1000F14D0C0F81C21D0F88D
:202E40001C310593059BD0F82431002B36D0C0F82421D0F8243106930123069A436181F80B
:202E60002F30BCE7D0F80821002AB8D0C0F808C1D0F808210792079AD0F8242152B1C0F839
:202E800024C1D0F8243108930123089A436181F82F30A4E74A6B896A8A42A0D2696AD0F847
:202EA000180588546A6BA96A0132481E82426A630AD08A420FD00123236290E7FFF74EFF1F
:202EC000034600288BD18DE7286A40060AD40223C4F80032EFE72A6A520680D5022285F830
:202EE0002D207FE78A42E6D1F8E700BF30B587B0384B01930023C0F80431D0F80421059237
:202F0000059AC0F82431D0F824210492049AC0F81C31D0F81C2103920D46039AC0F8083144
:202F2000AA6AD0F808110291012A02996B63044685F82F3047D00123C4F80032012323627D
:202F400095F82D20022A18BF23602B6883B140F28623AB60AB68C4F80433002007B030BD9A
:202F600029462046FFF724FF28B1019B013B0193019B002BF4DC95F82F30C3B1D4F8C43463
:202F8000C4F8C4349BB113F0010F18BF4FF4024048F2012208BF032013F0020F18BF10463A
:202FA00048F2022213F0040F18BF104600E00020019B002BD2DC00220523C4F800250320AD
:202FC000C4F80035CAE72B6A5B06B4D40223C0F80032B3E7A086010030B587B0344B0193D2
:202FE0000023C0F80431D0F804210592059AC0F82431D0F824210492049AC0F81C31D0F883
:203000001C210392039AC0F80831D0F8082102920D4601220299C0F800326B6385F82F3026
:20302000026295F82D30934218BF826029460446FFF794FE2B6883B140F28623AB60AB68B3
:20304000C4F80433002007B030BD29462046FFF7AFFE28B1019B013B0193019B002BF4DC65
:2030600095F82F30C3B1D4F8C434C4F8C4349BB113F0010F18BF4FF4024048F2012208BF99
:20308000032013F0020F18BF104648F2022213F0040F18BF104600E00020019B002BD2DCB6
:2030A00000220523C4F800250320C4F80035CAE7A0860100F0B52D4C2D4D87B02146284655
:2030C000FFF776FEC8B994F82F30C3B9227B911E01292BD9274E0FCE01AD0FC533682B602A
:2030E00000238DF80030236A0022590784F8302003D4D4E900316846984707B0F0BD04F172
:203100000C070FCF01AE0FC63B683360D5F8C434C5F8C4349A0705D45D071DD502238DF810
:203120000030E0E701238DF80030DCE7606AA1698842CFD1D4E9070184F82D306369C1F3A0
:203140004011032AC4E9090384F82C102846214608D0FFF7CBFED0E7D80744BF03238DF8D0
:203160000030C0E7FFF738FFC7E700BFB40B002000300040C00B002010B5074C236882B0CF
:203180003BB1064B1B6898470023236023680193019B02B010BD00BF00010140F00B002094
:2031A00070B5114B114A1D781160DDB9104E027801211970C6F80C25416804464FF47A7203
:2031C0000023C803490C07F0FFFFC6F80405237A084A5B01DBB282F810334FF480331360F2
:2031E000284670BD082070BDE30C0120F00B00200000014000E100E0044B054901220220D0
:20320000C3F804231A600870704700BF00000140E30C012010B504460020FDF703F90E4A9C
:203220001378072B11D80D492370581C1070D1F80805012202FA03F30343C1F808350024C0
:203240000020FDF7F7F8204610BD04240020FDF7F1F8204610BD00BFE20C012000000140D1
:20326000034B044A00F5C07043F82020704700BF000001403546526E014B00221A60704781
:20328000F40B002010B5044605F08AFB0D4A0E4B1188186805F094FB74B121460E2005F08A
:2032A000B9FB0A490D2005F0B5FB094B002108469B689847012010BD06490E2005F0AAFB8B
:2032C000EFE700BF200D01201C0D01200C0D01209CDA0000C8C9000030B50E4B1C6883B08B
:2032E000B4B105F02BFB054605F038FB01460D20019105F09BFB00900E2005F097FBDDE93F
:2033000000210346A446284603B0BDE83040604703B030BDF40B0020704700BF704700BFD1
:20332000704700BF704700BF704700BF704700BF704700BF002070470020704700207047BA
:2033400001207047704700BF0120704701207047704700BF00207047704700BF00207047D5
:20336000704700BF704700BF00207047012070470120704700207047704700BF014B1878B1
:20338000704700BFE40C012010B505F0B5FD00F2712405F0B1FD001B0028FADB10BD00BF6C
:2033A000064B10B500221A7005F0A6FD00F2712405F0A2FD001B0028FADB10BDE40C0120A2
:2033C00008B540F2D24006F0A7FDBDE808400248002105F02FBC00BF8403002010B50F4B95
:2033E0000F4C1B78237082B07423637507F00EFB019007F009FB01990246601D08F03CFF8D
:2034000007F00AFB019007F005FB0199024604F10D0002B0BDE8104008F02EBFCC0C0120BF
:20342000240D012038B5038804463BB1932B16D12348FDF75DFCB0B9012038BD214D2B789F
:20344000012B03D0204B1B78012B15D01C484FF4C071FDF739FC93232380012038BD0023CB
:203460000380032038BD194B154801224FF4C0711A70FDF729FCEEE7154805F02DFB154A08
:203480001549164805F028FB154805F025FB2B787BB1012B0FD0022B0FD01249124A032B1B
:2034A00018BF1146114805F017FB00232380022038BD0F49F6E70F49F4E70F49F2E700BF49
:2034C000F80B0020F50F0120030D0120E40C012024CA00005CCC00002CCA0000FCC5000095
:2034E000FCC900001CCD000058CC000068CC000054CC000018D3000050CC0000F8B5214F82
:20350000DFF88CC03D78204EBCF804E09DF81CC005EB451406EB840405EB451522726372E7
:203520009DF820209DF824302071BCF1110F4FEA8500E180A4F80AE006996271237384F846
:203540000EC0254600F10F000DD83044624608F093FE0E482946FDF72FFD3B78013303F0E9
:203560000F033B70F8BDD1F800C0CB684C688A6846F800C006447460B260F3600B8A3382AC
:20358000E7E700BFE50C012008100020082100209CEF0020024B034800221A70FDF706BD65
:2035A000E50C01200821002010B5034C2046FDF74FFD0028FAD110BD0821002038B50C4BA9
:2035C0000C4D0D48002421464FF40C621C702C7008F03CFE0948FDF7E9FC0948FDF7E6FC56
:2035E000084B09481C70BDE83840FDF7DFBC00BFE60C0120E70C0120481800201021002038
:203600000C210020E50C0120082100202DE9F84F814634480E469046FDF73AFD0F2820DCDA
:20362000314FDFF8D8A03D7805EB8504C4EBC4040AEB84034FF08C0B18465A46002108F0AD
:2036400005FE01462748FDF7E5FC3B78013303F00F03742E4FEA84043B700ED90020BDE836
:20366000F88F2048FDF7F4FC0028D9D01F4A1378013303F00F031370D2E71D4B1D499B884C
:2036800003EB830202EB021202EB022203EB42039BB245F2555293420B881BD88C2201330A
:2036A00002FB05A29BB20B80D3808C22124B02FB05A51B882B7204F11800504449463246A1
:2036C00085F80980AE7308F0D7FD0023AB800120BDE8F88F002BE1D00BFB05ABABF80630F1
:2036E000E3E700BF10210020E60C0120E70C01209CEF0020CE0C0120CC0C012048180020AA
:2037000030B5184885B0FDF755FC0446C0B18088C8B1C0B20022637AE188CDE90202124ABE
:20372000A07B019004F11800127800900420FFF7E5FE0E4A936801339360A3880133A380BD
:20374000204605B030BD637AE188074ACDE90200A57B019504F1180512780095FFF7CEFE69
:20376000EBE700BF10210020CC0C01204C0D012008B50248FDF78CFCC0B208BD10210020E9
:203780002DE9F04F83B007462B489DF830A0CDE900129846FDF77CFC0F2822DC274DDFF8EA
:2037A000A8B095F8009009EB8904C4EBC4040BEB84038C2618463246002108F047FD0146F3
:2037C0001D48FDF727FC2B78013303F00F03BAF1740F4FEA84042B700FD9002003B0BDE8A7
:2037E000F08F1548FDF734FC0028D7D0144A1378013303F00F031370D0E706FB09B9009B40
:2038000089F8083004F11800019B89F80930524658444146A9F8067089F80EA008F02CFD6A
:20382000084B9B88A9F80A3000220120A9F8042003B0BDE8F08F00BF0C210020E60C012039
:20384000E70C01209CEF0020481800200148FDF7B1BB00BF0C21002008B50648FDF7F8FB82
:2038600030B1054A1378013303F00F031370012008BD00BF0C210020E70C012008B50248C4
:20388000FDF706FCC0B208BD0C2100202DE9F04F2DED028BDFF89CE0DFF89CC03EF8116085
:2038A00085B00546301A4FF0010800049DF840709DF844900CF8018008EE102A0C469B465C
:2038C00015D40020CDE9003702901346CDF80C900A4607202946FFF711FE144AD369002001
:2038E0000133D36105B0BDEC028BBDE8F08F104E00974FF0000A2EF8115006F801A0E8B253
:203900000CF801A0FFF73CFF4046CDE902A9CDE900B718EE103A22462946FFF7EFFD002054
:2039200005B0BDEC028BBDE8F08F00BF4C0D0120080E0020080C0020080F002070B506462D
:20394000104815460C4605F0C7F80F4A0F49104805F0C2F80F4805F0BFF80F482A463146B5
:2039600005F0BAF845B10D4E254414F8011B304605F0B2F8AC42F8D1BDE87040084805F058
:2039800027BA00BF4CCA0000D8CC0000F4C50000FCC50000FCC90000E0CC0000ECCC00002A
:2039A000F4CC00001049114A114808B500230B70137005F091F80F4A0F49104805F08CF85C
:2039C0000F4805F089F80F4805F002FA0E4B0F491A780F48FFF7B2FF0E4B0F491A780F48F7
:2039E000BDE80840FFF7AABFE90C0120E80C01204CCA0000D8CC0000F4C50000FCC500001C
:203A0000FCC90000F8CC0000AE0900209803002010CD0000AD0900209403002018CD00003C
:203A2000704700BF014B00221A707047E80C0120144A154B70B4C2F8183500BF00BF00BF26
:203A4000124B13481349144D144C0026C2F80861C3F81805C3F81C15022041F60371C3F8FC
:203A60000405C2F810150E480E49C3F838556022C3F83C45C3F84005C3F84415C3F80425B3
:203A800070BC7047006000400325030000F001400411004008600040001100403060004029
:203AA0000C11004060600040084A4FF0A0410323C1F87C37C1F87837C2F81837C2F81C3727
:203AC000C1F87437C2F81437704700BF000300504FF0A043074810B44FF0004120244FF07C
:203AE0008042C0F80C45C3F80C15C3F80C255DF8044B704700030050F8B5104B02460846E7
:203B00001A8006F009FA0E4B1878A8B10D490E4F0E4E3B680E4D01384A1C52FA80F043F233
:203B2000390406FB0343A5FB03C203EBD21201F8012B8842F5D13B60F8BD00BFDC0C0120FD
:203B4000F60F012028EF0020E80E01206D4EC6418180808038B5194B9A6892F8FA24022A07
:203B600000D038BD164A174912780D6852B148B9154A6988148888B2844203D01348118012
:203B800001220270124C13492278D87D0870012AE7D1114A1278012AE3D19B880F4968885D
:203BA000013B81FB0321A1EBE37101EB410189B2FFF7A2FF0023237038BD00BF9CEF002034
:203BC000F70C0120B80E0120D00C0120AF090020FC0C012004320020030D01205655555500
:203BE0002DE9F0415D4B1B78022B04460D4643D05B4A5C491388097801331380002939D007
:203C0000594E3378002B76D1002C33D1002D31D0564B574A1B6915681B79002B00F0988078
:203C2000012B0CBF77200120524E53493268534C92F800C02F880023137008442B706B70F7
:203C40004FF6FF7311F8012B82EA13221B0234F812209BB2814283EA0203F3D13268A5F8DF
:203C6000783082F800C0AB78E978454A2F8043EA01231380BDE8F081424E3C4F4FF0FF0845
:203C800042460021304608F0E1FA3F4B97F82C203E4972701B783E4A91F800E082F800E086
:203CA000002B3DD186F802807371B3710023BEF1020F3370F37033714CD03249DFF8BCC04C
:203CC000C81E704441F6F0624FF6FF7305E011F8012F82EA13223CF812201B029BB28842B1
:203CE00083EA0203F3D1F97DBA88A6F87B303170A6F803207CE74FF4FF620021254808F09E
:203D0000A5FAFF220021244808F0A0FA2349244A00230B7033701370002C3FF477AFA9E711
:203D2000204A214B12781B88B37062B11F4B013A03F1010C5CFA82FCB21D13F8011B02F8E0
:203D4000011F6345F9D11A4B1B88A6F80530ADE77B2069E74FF6FF73C5E700BFF50F012030
:203D6000D20C0120F70C0120AF0900209CEF0020B80E0120B00D0120B40D01207CCD0000AD
:203D8000D00C012004320020030D0120B40E0120EF0C0120142100200C290020EA0C0120DF
:203DA000ED0C0120F60F0120CC0C012028EF0020DC0C01202DE9F041384DAB6893F8FA34F2
:203DC000022B01D0BDE8F081354B1B78002B3BD0344B93F80080B8F1000F35D13249334B45
:203DE000334E1A780B78334C334832700133D60006600B702046314908F03EFAB4F80300E7
:203E0000277884F8038084F8008084F80480C6B12B49424601E014F80C8002F0070328FAFE
:203E200003F313F0010F0B7802F1010214BF013303F1FF335BB2964201F8013B4FEAD20CA2
:203E4000E9D12770A4F803001E4B1F4C1B78EA7D2270002BB6D1154A174B1588ED00082DE0
:203E60001D6016DD154F194E0823D90803F00702605C795CD04021FA02F202F0010200F06A
:203E80000101914202D09A5D01329A5501339D42EBD10F4B01221A70BDE8F0819CEF0020CB
:203EA000F70C0120ED0C0120EA0C0120B40E0120EF0C01200C29002004330020B40D012020
:203EC00014210020FC0C0120043200200C2A0020EE0C0120824B1B785BB12DE9F047814C17
:203EE000A36893F8FA34022B84B003D004B0BDE8F0877047667D1EB97B4B1B78022B46D8E5
:203F00007A4F7B4B1B78022B0ED07A4D7A484FF4FF62002108F09AF94FF0FF3200233A606E
:203F20002B7004B0BDE8F087744B6F4A18881278A37D617D01920093714A3D68DFF8D081C8
:203F400012880B44C000A18802956A4DC8F800006C4804F0C1FD2B78ABB1D8F8003093B1D8
:203F6000654EDFF8D091002404E0D8F8003001349C4208D216F8012B002AF6D02146484642
:203F800004F0AAFDF1E7604804F0A6FDBEE7FF225E48314608F05AF9584A5D4BB2F800E06D
:203FA0004FEACE0EC3F800E0BEF1000F00F09480DFF884C1554DB04633463146012701E0E2
:203FC00015F801801CF9019B03F0070203F00700B9F1000F07FA00F007FA02F2B8BF28EA84
:203FE000000003F1010348EA0202ACBF6A5468549E454FEAD301E3D195F800A0B5F803909D
:20400000DFF8388198F800C00023BCF1020E2B70EB702B715DD03D493E4ACF1E674441F644
:20402000F0604FF6FF7305E011F8010F80EA132032F810001B029BB2B94283EA0003F3D10B
:2040400085F800A0A5F8039035F80E209A4207D0314A264F1378002101331370396050E7E2
:204060002E4ADFF8DC90137899F800102C481F4F013313700123994203703B6012D0294B5D
:20408000B5F80520188891B2884203D026491A8001230B7001361D4924486675624608F0A2
:2040A000EBF82EE7224B1B78012BE8D1A188B5F805000323013991FBF3F101EB410189B20F
:2040C000FFF71AFD002398F800C0667D89F80030D5E74FF6FF73B3E70C4DB246B1468FE701
:2040E000F70C01209CEF0020EA0C01209C030020F50F0120EE0C01200C2A0020B40E0120A2
:20410000D20C012020CD000064CD00000C290020043300207CCD0000EB0C0120EC0C01205C
:20412000ED0C0120D00C0120AF090020B40D0120030D01206CCD000014210020EF0C0120D3
:20414000FC0C01200C4B0D4810B500241C70FCF72DFF214644F6B072094808F077F8094A28
:20416000094B147003F196014FF02E321A609A8006339942FAD110BDF00C0120D89E00204A
:20418000DC9E0020F10C01208CEE002038B5124D2C78632C0DD8114911484FF48A7303FB78
:2041A00004142146FCF708FF2B7801332B70204638BD0C4804F090FC0B4A0C490C4804F0F3
:2041C0008BFC0C4804F088FC002429780A48642204F082FC204638BDF00C012008330020AA
:2041E000D89E002080CA00007CCF000088CA0000FCC50000FCC9000084CF00002DE9F04122
:2042000006469DF818800D4617461C46FFF7BEFFA0B1C0E901650A4BD97D9A680173127D50
:204220009B884273C38180F8108080F81041394622461130BDE8F04108F01EB8BDE8F081AF
:204240009CEF0020084B1B786BB110B4074B084A9C68D97D237D03EB430302EB430358543C
:204260005DF8044B70477047F70C01209CEF00208CEE00202DE9F843144EB268537D03B370
:204280000027DFF84C803D4605EB450502EB051393F8223083B1002408EB4509234619F8A2
:2042A000030004F08FFDB26802EB0513013493F82210E3B29942F2D8537D0137FDB2AB428C
:2042C000E2D8BDE8F8430A2004F07CBD9CEF00208CEE0020654B1B78002B00F0C6802DE9EE
:2042E000F04F87B00023DFF8B8A1614E05931C4604EB04130AEB03135E4A93F80C019188E2
:2043000093F8032193F804314FEA0419002878D0012800F09980584D584F02280CBF284687
:20432000384609EB04050AEB0518009098F8000198F8FF700297002814BF542052200190C5
:204340004F4804F0C9FB98F802B12D01BBF1000F59D103274B4804F0BFFBB84604974A4822
:20436000032104F0B9FB09EB04050AEB051515F80B100BF1010B30465FFA8BFB04F0ACFB45
:20438000BB45F4D395F80111404804F0A5FB95F80131B3B109EB0407049D0AEB071742463D
:2043A000B95C304604F098FB97F801310135EDB2142B94BF08EB030108F114018D422A467F
:2043C000EEDB09EB040204990AEB02120B4492F8FF10DBB2CB1A142B2FDC4C440AEB041433
:2043E0002B48D4F80811059C0134059404F074FB1E4B1B78E4B2A3423FF67AAF07B0BDE862
:20440000F08F24488DE71B4BDB685B681B790F2B1CD002211C4804F05FFB1AF805103046A5
:2044200004F05AFB052798F80110304604F054FBB84604974FF0020B91E70A44164812F89A
:20444000011C04F049FBC8E714486AE701210E4804F042FB04271AF80510304604F03CFB0F
:20446000B84604974FF0010B79E77047F10C012008D000009CEF0020B4CF0000C0CF00008E
:20448000C4CF0000E0CF0000F0CF0000F8CF000010D000009CCF000004D00000A8CF0000BE
:2044A000DC9E00202DE9F84FFFF7E4FEDFF87C91DFF86C81534FFFF70DFF4846FCF7C8FD9B
:2044C0000446002842D0D4E90112404604F004FB237C042B00F28780DFE803F03C6F584249
:2044E000030094F810214FF0FF3606EBC20301269E40F6B20AB34FF0000B5D4625444FF0D3
:20450000080A6B7C1E4214BF01210021384604F0E3FA6B7C0AF1FF3A5B00DBB21AF0FF0AC7
:204520006B74EFD1202004F04DFC0BF1010B94F810315FFA8BF5AB42E0D80A2004F042FCB0
:204540004846FCF785FD04460028BCD1BDE8F84FFFF7F8BD04F111012B4804F0BDFAACE70A
:2045600094F81031002BE8D00025284E2B4623443046597C04F0B0FA013594F81021EBB29F
:204580009A42F4D80A2004F01DFCD9E794F81031002BD2D000251E4E29466318304693F965
:2045A000112004F099FA013594F81031E9B28B42F3D80A2004F006FCC2E794F81031002B4C
:2045C000BBD00025114E2B4623443046597C04F083FA013594F81021EBB29A42F4D80A20D6
:2045E00004F0F0FBACE70B4804F076FA0A4A0B490B4804F071FA0B4804F06EFA0A4804F043
:20460000E7FBA3E728D000001CD00000CCCA000020D0000080CA00007CCF000088CA0000DD
:20462000FCC50000FCC900002CD00000D89E0020224A137D517D99421ED900B52049302058
:20464000097800FB032083B0183071B1012103EB430302EB031382F8FA149B6901901B6924
:204660009847019803B05DF804FB16490978002914BF02210321EAE7002082F8F90482F8B6
:20468000FA04C2F8E104C2F8E504C2F8E904C2F8ED04C2F8F104C2F8F504C2F8C80410751B
:2046A000C2F8CC04C2F8D004C2F8D404C2F8D804C2F8DC0482F8E004704700BFC403002065
:2046C000F80C0120F40C012030B5144C85B00023A16923750F206360A3620391FDF790FB4B
:2046E00094F82030039906252B440246DBB204F11800009500F08CF8094A6368616A12784A
:204700000B4463600AB105B030BD204650F8181F05B0BDE8304000F0B5B800BFC403002078
:20472000F90C012010B5294C2949237D03EB430204EB0212013391616375FFF7C5FF254BA9
:204740001B7803B110BD244804F0C6F9234A2449244804F0C1F9244804F0BEF92378002B55
:204760002ED12249224804F0B7F91B4804F0B4F91A4A1B491B4804F0AFF91B4804F0ACF9FA
:20478000617D1C4804F0A8F9134804F0A5F9134A1349144804F0A0F9134804F09DF9646802
:2047A000154B1648164A0021E3FB0401002306F00BFD21460246BDE81040124804F08CB97F
:2047C0001149124A012B18BF1146CBE7C4030020C0080020F90C01204CCA00006CD00000D0
:2047E000F4C50000FCC50000FCC900004CD0000078D0000084D0000040420F0000127A00A5
:204800000024F400A4D000005CD00000C0CF00002DE9F041184C9DF8188094F800C00D46DA
:20482000044616461F46BCF1000F01D1CB6898476660277284F80A802B79D3B1012B0CBF49
:2048400079210321EA793046FDF7E6FAA27A0B4B00FB02F01B68A0F5FA40E0603BB19B680D
:204860002BB1074A21469068BDE8F0411847BDE8F0817D21E6E700BFF90C0120ECEF002016
:204880009CEF00202DE9F047044682B0B6480D4604F022F9B54AB649B64804F01DF9B64840
:2048A00004F01AF92B7943B1012B00F05981B349B34A022B18BF114600E0B249B24804F046
:2048C0000BF9A94804F008F9A84AA949A94804F003F9A94804F000F963681B79A3B1012B6C
:2048E00000F04081032B00F07F81042B00F07A81062B00F07B81052B00F07A81A349A04AC1
:204900000F2B18BF114600E0A149A248A24EDFF8ACA204F0E1F8944804F0DEF8934A944939
:20492000944804F0D9F8944804F0D6F89B4B9C4AE9799C48002914BF1146194604F0CCF8BC
:20494000894804F0C9F8894A89498A4804F0C4F8894804F0C1F86368934AD3F818800027FA
:20496000304639460023EAFB080106F02DFC414602468E4804F0B0F87B4804F0ADF87B4AB0
:204980007B497C4804F0A8F87B4804F0A5F86368854AD3F81C80304639460023EAFB0801A0
:2049A00006F012FC41460246814804F095F86E4804F092F86D4A6E496E4804F08DF86E4853
:2049C00004F08AF8D4F80490774AD9F82080304639460023EAFB080106F0F6FBEB79024636
:2049E000002B40F0B28099F8043072490F2B14BFFF237D2300917048674E704D414604F0A5
:204A00006BF8594804F068F8584A5949594804F063F8594804F060F86368634AD3F8248036
:204A20000027304639460023E5FB080106F0CCFB41460246624804F04FF84B4804F04CF812
:204A40004A4A4B494B4804F047F84B4804F044F86368554AD3F83080304639460023E5FBC8
:204A6000080106F0B1FB41460246564804F034F83D4804F031F83D4A3D493E4804F02CF8B1
:204A80003D4804F029F86368474AD3F82880304639460023E5FB080106F096FB4146024656
:204AA000494804F019F8304804F016F82F4A3049304804F011F8304804F00EF863683A4ABE
:204AC000D3F82C80304639460023E5FB080106F07BFB414602463D4803F0FEFF224803F051
:204AE000FBFF224A2249234803F0F6FF224803F0F3FF63682C4AD3F834803046394600236B
:204B0000E5FB080106F060FB41460246304803F0E3FF154803F0E0FF144A1549154803F004
:204B2000DBFF154803F0D8FFE4681F4A304639460023E5FB040106F047FB0246254821466E
:204B400002B0BDE8F04703F0C7BF2B792BB1012B21490CBF792303234CE71F497D2349E740
:204B60001E49ABE61E49D0E64CCA000024D10000F4C50000FCC50000FCC90000B4CF000053
:204B8000C0CF00009CCF000030D10000D0D00000E0D0000040D1000000127A0000D100005C
:204BA000F8D000005CD100000024F40078D10000A4D1000008D10000D0D1000040420F001F
:204BC00008D2000034D2000060D200008CD20000B8D20000E4D2000068D30000A8CF000073
:204BE000E8D00000034990E603498EE603498CE603498AE6ECD00000E4D00000D8D00000E9
:204C0000F0D00000704700BF70B5154C154DA36893F8FA34022B82B00AD0134B28681B88E8
:204C20008278934206D0FF2A04D0002002B070BD286882780D4B06781B68417858880196C0
:204C4000742604330096FEF721FEA3682A68197D52780B44012083F8E12402B070BD00BF4E
:204C60009CEF0020B00D0120CC0C0120B80E0120F8B5154B1B780BB90020F8BD134D144AD4
:204C80002B68144912880E685A702B68124FFF229A70BB883380FEF733FD04460028EBD0E3
:204CA0002B68427A9A70C3887380A27B04F11801301D07F0E1FABB68627A197D0B4404200B
:204CC00083F8C824F8BD00BFF80C0120B00D0120CC0C0120B80E01209CEF0020084B9A6816
:204CE00092F8FA24012A05D006490020542208729A7670470348522102729976704700BF2F
:204D00009CEF0020C0080020184B1B78002B2CD110B5174C1749E37F8A6B0133DBB201320F
:204D2000092BE3778A631FD9134B1B680BB103209847A3681149587D114A187500231148C3
:204D40000B70137003F0C8FE0F4A1049104803F0C3FE104803F0C0FEE27FA1880E4803F002
:204D6000BBFE0E4B01221A7010BD7047F80C01209CEF00204C0D0120E4EF0020F70C01208F
:204D8000F50C012024CA000010D300002CCA0000FCC50000FCC900001CD30000FC0C01208C
:204DA00002486022002107F051BA00BF4C0D0120104A4FF4806070B4C2F88000BFF34F8F60
:204DC000BFF36F8F0C4BC2F88001002401212026032582F80A63C3F804455960D960C3F845
:204DE0001045C3F80855C3F800421060196070BC704700BF00E100E000A00040024B0122AD
:204E0000DA64D3F84C05704700A0004030B40D4B0122DA64D3F84C45041B002C0EDB02462C
:204E2000094800244FF480250160C3F84841C3F84825C3F80453204630BC7047022030BC1F
:204E4000704700BF00A0004024EF0020024B4FF48022C3F80823704700A0004008B54FF01E
:204E6000A0420E4B4FF08041C2F80815D3F8482162B100214FF48020094AC3F84815C3F8AF
:204E80004811C3F808031368084698474FF0A0434FF08042C3F80C2508BD00BF00A00040D8
:204EA00024EF0020024B00221A700120704700BFF90C012038B503880446002B55D0B3F54F
:204EC000826F57D1822901D0012038BD2B4B8022C3F80825FEF7D2FC98B1FEF7B7FC80B142
:204EE000274B817B1B6818309847FBF7EDFF0546BFF35F8FFEF7B0FCBFF35F8F2846FBF730
:204F0000E7FFFEF7BBFC10B11E4803F04DFFFEF7B5FC0C2810D91C4803F0DEFD1B491C4ADA
:204F20001C4803F0D9FD1C4803F0D6FDFEF7A6FC01461A4803F0D0FDFEF71AFC0C2810D9F2
:204F4000114803F0C9FD1149114A124803F0C4FD114803F0C1FDFEF70BFC0146104803F0E4
:204F6000BBFD064B8022C3F80C254FF482632380012038BD00230380032038BD00030050A8
:204F8000F0EF0020F008002024CA00002CCA00004CD30000FCC50000FCC9000050D300004E
:204FA0006CD3000010B503880446D3B1B3F57D7F1CD1822901D0012010BD0E4B8022C3F8E3
:204FC0000825FEF7F1FAFFF76DFAFEF7E3FAFEF755FC10B1084803F0E7FE064B8022C3F8B8
:204FE0000C254FF47D732380012010BD00230380032010BD00030050F008002000B50D4AAF
:205000000D4BD2685268127983B00F2A4FF00201A0F5487214BFFF207D2001921970FDF71D
:205020005BFA019A0548502103B05DF804EBFDF725BA00BF9CEF0020B60E0120B40D0120C7
:2050400010B5124C23788BB1FDF714F9104B00221B69227098470F4B1B6A03B198470E4B18
:205060001B6893B1BDE81040022018470B4803F033FD0B4A0B490C4803F02EFD0B4803F01C
:205080002BFD0B4803F0A4FEDEE710BDB60E0120DCCB0000A0030020E4EF002024CA00003E
:2050A0004CD300002CCA0000FCC50000FCC9000088D3000010B505F075FD4820FFF7C2F8B6
:2050C0000E4B0F4A1B78002111708BB10D480E490E4C0288CB7D6469013201330280CB75DF
:2050E00004B1A0470A4B1B6813B1DB6803B19847BDE810405020FDF77BB900BFF70C012032
:20510000F20C0120D40C01209CEF0020A0030020ECEF002030B5B34883B003F0DDFCB24A2B
:20512000B249B34803F0D8FCB24803F0D5FCB24803F04EFEFEF736FCFEF740FAA94803F081
:20514000CBFCA94AA949AA4803F0C6FCA94803F0C3FCAA4803F03CFEA24803F0BDFCA24AB8
:20516000A249A34803F0B8FCA24803F0B5FC0121A34803F0B1FC9B4803F0AEFC9A4A9B492F
:205180009B4803F0A9FC9B4803F0A6FC06219D4803F0A2FC934803F09FFC934A9349944881
:2051A00003F09AFC934803F097FC0621964803F093FC8C4803F090FC8B4A8C498C4803F0BA
:2051C0008BFC8C4803F088FC0821904803F084FC844803F081FC844A8449854803F07CFC7A
:2051E000844803F079FC8A498A4803F075FC7D4803F072FC7C4A7D497D4803F06DFC7D48DA
:2052000003F06AFC8449854803F066FC754803F063FC754A7549764803F05EFC754803F0FF
:205220005BFC7F4B1B68002B00F0588119687D4803F052FC6B4803F04FFC6B4A6B496C4841
:2052400003F04AFC6B4803F047FC774B7748196803F042FC634803F03FFC634A634964481B
:2052600003F03AFC634803F037FC714803F0B0FD5C4803F031FC5C4A5C495D4803F02CFC0C
:205280005C4803F029FC6B4B1A69D279002A40F02381DB685B681B790F2B14BF02210121E4
:2052A000654803F019FC4F4803F016FC4E4A4F494F4803F011FC4F4803F00EFC03215F4877
:2052C00003F00AFC474803F007FC474A4749484803F002FC474803F0FFFB7421584803F00A
:2052E000FBFB404803F0F8FB3F4A4049404803F0F3FB404803F0F0FB0121524803F0ECFBD3
:20530000384803F0E9FB384A3849394803F0E4FB384803F0E1FB4C4803F05AFD314803F047
:20532000DBFB314A3149324803F0D6FB314803F0D3FB282240F28721444803F0CDFB29484E
:2053400003F0CAFB2949284A294803F0C5FB294803F0C2FB4FF4FA6300934FF4FA42002397
:205360003B4803F0B9FB1F4803F0B6FB1F491E4A1F4803F0B1FB1F4803F0AEFB44F6206362
:20538000344A00933448002303F0A6FB154803F0A3FB1649144A164803F09EFB154803F0E4
:2053A0009BFB4FF4FA7300934FF4FA5200232B4803F092FB0B4803F08FFB0C490A4A0C48A2
:2053C00003F08AFB0B4803F087FB322300934FF448720023224803F07FFB024803F07CFBFA
:2053E00040E000BF4CCA00004CD30000F4C50000FCC50000FCC90000A8D30000B4D3000058
:20540000CCD30000F4D300001CD4000044D400006CD4000074D400004CD000009CD400000A
:20542000ECEF0020C4D40000A0030020ECD4000014D500009CEF00202CD5000058D5000094
:2054400084D50000B0D50000DCD50000F8D5000028D6000000E2040060D6000090D6000070
:20546000C0D600001E4A1F491F4803F035FB1F4803F032FB0F20FCF7C3FC03460F209C6957
:20548000FCF7BEFC03460F209B6A1C44FCF7B8FC03460F209D69FCF7B3FC826A144B154813
:2054A000154405F287250021E3FB0501124A002305F08AFE04F28724024621460F4803F055
:2054C0000BFBFEF7F1FAFEF703FBFEF7B1FA03B0BDE83040FFF764BC0021E1E60849A6E6B0
:2054E0004CD30000F4C50000FCC50000FCC9000040420F0000127A000024F400F0D6000053
:20550000A0D30000064B1A78012A00D0704705490B8801339BB20BB90A8070470B807047DA
:20552000030D0120DC0C01202DE9F047DFF8BC8098F80030012B0F4681464BD0022B48D069
:2055400026490B78B3B10024254EDFF8A4E0DFF8A4C0254643F2390033680EFB0303ACFB9E
:2055600003A203EBD21233607A5501340B78E5B2AB42F1D898F80030012B1A4B9B8811D0F8
:20558000013B03EB830202EB021202EB022203EB42039BB245F25552934218D8BDE8F0474B
:2055A000FFF7B0BF03EB830202EB021202EB022203EB42039BB245F25552934201D8FFF7FF
:2055C000A1FF094B1A884A4501D0A3F80090BDE8F087013804F0A0FCB2E700BFF60F012047
:2055E000E80E01209CEF0020D60C0120F50F01206D4EC641818080802DE9F04FAC4F2DED94
:20560000028B3B6885B00BB102209847A94B0225C3F88050BFF34F8FBFF36F8FA64AA74C9F
:20562000A7484FF0FF31C2F80813C3F88051FCF7B9FAE3681A682261137923B93B6813B1E6
:205640002846984722699F499F4B0B600021616121839E4D9E4ED0792960318050B9E16802
:20566000496809790F2900F05E819A4D991C2960053302E0974D2B600333974897490360EA
:205680004B68C3F30803002B00F00A814FF0000853699847824618B1914A53680133536000
:2056A0008E4B5B68C3F30803002B00F0F3802369DA79002A3DD01879002854D0012800F0F3
:2056C0003781884ADFF84482D2F80C904FF0030CA8F800C0B9F1000F52D0197A0022C847F0
:2056E000B8F800C0E368586803790F2B14BFFF237D23634546DA7C4803F0EEF97B4A7C49F4
:205700007C4803F0E9F97C4803F0E6F9E368B8F800105B6879481B790F2B14BFFF227D226A
:2057200003F0DAF905B0BDEC028BBDE8F04F00F0FBBE6C49DFF8D481D1F80C900AF1030CDB
:205740001FFA8CFCA8F800C0B9F1000FCAD01879197A002800F01B81012808BF7622C84786
:20576000B8F800C0BEE75F4ADFF8A081D2F80C904FF07D0CA8F800C0B9F1000F40F0D080AC
:20578000E368586822695049D379127900925FFA8CF2FCF703FCE268236A10695849D2687D
:2057A000DFF86C91DFF86C81097803441A44C9F80020C8F80030002960D0A268A388107D3F
:2057C000184480B2FEF72EF9BAF1000F03D03B680BB102209847DFF840B1DFF840A1DBF8DF
:2057E0000020E17D526BD8F80000464F9AF8003002FB01023A60002B00F0AA80E068827A24
:205800008A423ED994F814C0027A944539D223699A79002A40F0AF8093F808E0227E5EEA62
:20582000020200F0AE80384A93F807E04FF0050C82F800C03A68BEF1000F0FD193F804C039
:20584000BCF1010F0AD14168039209790F2914BFFF207D20FCF740FEE17D039A2B681A4808
:2058600019705021FCF794FD5422A276002840F0908005B0BDEC028BBDE8F08FFEF7D0F8E8
:20588000A2E7FFF7DDFB05B0BDEC028BBDE8F04F00F04ABEBFF35F8F4046FBF719FB06E7D1
:2058A000FBF712FB8046BFF35F8F2269F0E600BFE8EF002000E100E0001000409CEF0020B0
:2058C000857A0000AC0D0120B40D0120FCEF0020D40C0120B00D0120B80E012000ED00E06F
:2058E0004C0D0120A003002080CA00004CD3000088CA0000FCC50000FCC90000A0D70000B3
:20590000F70C012000F00020B60E0120B40E012004F0002008F00020140D0120F80C0120F8
:20592000197A7A221BE7AF4D591C29600433A4E6AD4ADFF80083D2F80C904FF0790CA8F860
:2059400000C0B9F1000F3FF41BAF197A762206E70F20FCF755FA02460F2093690393FCF74C
:205960004FFA3A68039B806AE17DA2F28722D21A121A3A6042E71A7A002A72D1A27E522AA1
:2059800073D03868FFF73AFB5222A2766EE77A22E5E6FFF733FA954B03901A68121A002A43
:2059A00067DBD9F80020039BD21A002AC0F2B1804D20FEF747FC94F817C0DBF80020D8F852
:2059C0000010506B32880CF1010C5FFA8CFC00FB0C119AF8000084F817C0013239603280DC
:2059E000002800F0E980E1688A7A624540F2DD80207D0A7A904280F0D88020698279002A3A
:205A000040F01A8190F808E0227E5EEA020300F02081774AC3794FF0050E82F800E03A6882
:205A200073B9007901280BD14968039209790F2914BFFF207D20FCF74FFD94F817C0039AEE
:205A400029686C4881F800C05021FCF7A1FC5422A276002840F00581674AD36C0133D36400
:205A600007E700293FF4DFAE88E7227E002A88D0D9E65820FEF7E6FB604803F02DF8604A47
:205A80006049614803F028F8604803F025F823695F4A1B79B2F80080B4F80490002B00F09B
:205AA0009F80012B00F03F815A4E5B4A022B18BF16464E4B039A1B68DFF86CA1574D4FF0BE
:205AC000000BD31A50465946554AE5FB0301002305F07AFB3B68039A0190D31A5046594696
:205AE0004F4AE5FB0301002305F06EFB4146009033464A464B4802F0EFFFA3685A7D1A75A4
:205B0000FFF79EFA00F010FD3B4A536C01335364AFE65320FEF796FB384802F0DDFF384A6D
:205B20003849394802F0D8FF384802F0D5FF2369374A1B79B4F804A0B2F80080002B39D005
:205B4000012B00F08C80334E334A022B18BF1646D9F80030039A344CDFF8C0900025D31A68
:205B6000204629462E4AE9FB0301002305F02CFB3B68039A0190A2EB030B20462946284AFE
:205B80000023E9FB0B0105F01FFB3346524641460090264802F0A0FFFFF752FA00F0C4FCCA
:205BA000154A936C0133936463E6FFF749FA00F0BBFC51E71E4ECBE70F20FCF721F9024659
:205BC0000F2093690393FCF71BF93A68039B816A94F817C0A2F28722D21A521A3A6002E757
:205BE000134E66E7B00D0120A0030020F8EF0020B60E0120B40D01204C0D0120E8C900005D
:205C00004CD30000F8C90000FCC50000FCC90000CC0C0120B4CF0000C0CF000040420F0082
:205C20000024F40028D7000000127A0064D700009CCF0000B40E0120027A1AB1BCF1000F35
:205C40003FF4E7AEA27E522A03D1227E002A7FF4E0AE3868FFF7D2F95222A276F9E6AA4E7D
:205C600076E7FFF7CBF8A94B03901A68121A002AC0F2AE80D9F80020039BD21A002A59DBF6
:205C80004D20FEF7DFFADBF80020E37D516BD8F800C032889AF800000133DBB201FB03C15D
:205CA00001323960E3753280002800F0E080E068E37D827A9A4238D9217D027A914234D212
:205CC00021698A79002A40F0EE80237E0A7A134314BF01230023002B00F0DF808C4ACB7946
:205CE0004FF0050C82F800C03A6863B90B79012B09D1436803921B790F2B14BFFF207D2035
:205D0000FCF7EAFB039A2B68E17D197081485021FCF73EFB5423A376002840F0D0807E4A2E
:205D2000D36C01339AE6784EC3E6FFF789F900F0FBFBF4E75320FEF785FA784802F0CCFE65
:205D4000774A7849784802F0C7FE784802F0C4FE2369774A1B79A6881588002B00F09980F6
:205D6000012B00F0CA80734C734A022B18BF1446D9F80030039ADFF8D881DFF8C8A14FF096
:205D80000009D31A404649466C4AEAFB0301002305F01AFA3B68039A0190A2EB030B40463B
:205DA0004946664A0023EAFB0B0105F00DFA2346324629460090624802F08EFEFFF740F95D
:205DC00000F0B2FB544AD2E912130131916445E65820FEF737FA514802F07EFE504A51497D
:205DE000514802F079FE514802F076FE2369504A1B79B2F80080B4F80490002B4BD0012B0C
:205E000056D04C4D4C4A022B18BF15463F4B039A1B68DFF83CA14B4E4FF0000BD31A50460A
:205E20005946464AE6FB0301002305F0CDF93B68039A0190D31A50465946404AE6FB03010E
:205E4000002305F0C1F9414600902B464A463E4802F042FEA3685A7D1A75FFF7F1F800F060
:205E600063FB2D4A516CD36C01315164F6E50F20FBF7C6FF03460F20D3F81880FBF7C0FF1D
:205E80003B68826AA3F28723A3EB08039B1A3B600DE72E4C6CE72D4DB8E73868FFF7AEF835
:205EA0005223A37638E70A7A22B11BB9012312E7154DABE7A37E522B21D000230BE7FEF760
:205EC0009DFF124B1B681B1A002B0546C0F28C80D9F800301B1A002B3CDB4D20FEF7B2F958
:205EE0003288E37D013201333280E37500F068FB094AD36C0133D36412E7034C38E7237EBF
:205F0000003B18BF0123E6E6A8CF0000F8EF0020B60E0120B40D01204C0D0120E8C900000F
:205F20004CD30000F8C90000FCC50000FCC90000CC0C0120B4CF0000C0CF00000024F400D8
:205F400064D7000040420F0028D700009CCF000000127A005320FEF775F94F4802F0BCFD67
:205F60004E4A4F494F4802F0B7FD4F4802F0B4FD23694E4A1B79B4F804A01688002B00F0B9
:205F80008480012B7FD04A4C4A4A022B18BF1446D9F80030DFF83C81DFF83CB1464A4FF0D2
:205FA0000009EB1A40464946EBFB0301002305F00BF93B680190ED1A404649463E4A0023BD
:205FC000EBFB050105F000F923465246314600903A4802F081FDFFF733F800F0A5FA384ABB
:205FE000936C013393649BE65820FEF72BF92A4802F072FD294A2A492A4802F06DFD2A486C
:2060000002F06AFD294A2369B2F800901B79A28808EE102A002B3CD0012B38D0244E254AB4
:20602000022B18BF1646274BDFF8A8A01B68DFF8A880214A4FF0000BEB1A50465946E8FB1B
:206040000301002305F0C0F83B680190EB1A50465946194AE8FB0301002305F0B5F8494660
:2060600018EE102A00903346174802F035FDA3685A7D1A75FEF7E4FF00F056FA104A536CB2
:20608000013353644CE6114C82E7114C80E70F4EC9E70F4EC7E700BFE8C900004CD30000B2
:2060A000F8C90000FCC50000FCC90000CC0C0120B4CF0000C0CF00000024F40064D700003B
:2060C0004C0D0120F8EF002028D70000A8CF00009CCF000000127A0040420F0038B5354CD3
:2060E000216AA288236801320B44A2802362FEF785FE216A081A0028F3DB2F4B1B78012BE3
:206100003DD0022B24D0A068427D6AB1013AD3B200F13001302212FB03120346002183F834
:20612000201030339A42FAD1244B9B680BB19847A068C3689847A268236A506820491269D3
:2061400003440B609047E060BDE83840FFF754BA1C4B1B78002BD6D0A0881B4B1B49421E38
:2061600083FB0253A3EBE27303EB4303D31AC01A80B2FFF7D9F9164B5B699847C3E7114B6A
:206180001B78002BBFD0134AA088134D13781349A5FB005040085D1C00EB4000C3EB032336
:2061A000194480B21570FFF7BFF9094BDB689847A9E700BF9CEF0020F50F0120A0030020C5
:2061C000F8EF0020F70C01205655555528EF002090090020040D0120ABAAAAAAD0F800208C
:2061E0002DE9F043A64E337883B01BB1012003B0BDE8F08304F0FAFB0278022A0446D3B26E
:2062000024D8002B40F0F5809E4802F065FC9E4A9E499F4802F060FC9E4802F05DFC2378A9
:20622000002B00F0E0802378012B00F024812378022B00F01C812378032B00F01E81227840
:206240009549964B042A18BF1946CDE0032BDBD104F0E2FB924D03782B70924802F03CFCCA
:20626000894A91498A4802F037FC8A4802F034FC2378002B40F0A7808C492A788C4802F02C
:206280002BFC8C4B29781B888B4240F0E8808A4B8A4F8B4C8B4A1B680120387020701070A1
:2062A0000BB198472978884802F016FCFEF780FD864D874BAB609B689847864B1B6813B1B2
:2062C0005B6803B19847AB68834A5B6803F5EA2303F54073934200F292802A607F4B5B6825
:2062E00003B19847FDF72EFF01236E4833707C4C02F0F2FB644A6C49654802F0EDFB65482F
:2063000002F0EAFB94F801137648490902F0E4FB644802F0E1FB5C4A63495D4802F0DCFBEB
:206320005C4802F0D9FB94F80A136F48490902F0D3FB5C4802F0D0FB534A5B49544802F051
:20634000CBFB544802F0C8FB94F827136748490902F0C2FB402384F80833524802F0BCFB53
:20636000494A51494A4802F0B7FB4A4802F0B4FB94F808135E48490902F0AEFBA02384F80E
:206380000B33484802F0A8FB3F4A4749404802F0A3FB404802F0A0FB94F80B1355484909BB
:2063A00002F09AFB5448002102F044FC0021534802F040FCFEF722FD2862FFF78FFE01203B
:2063C00003B0BDE8F0832378012B4CD02378022B4FD02378032B48D022782F492F4B042A8D
:2063E00018BF194649E731492278454802F074FB5CE704F00BFB2A4D03782B702DE74148CE
:206400002B6002F069FB204A3F492148DFF814813E4F02F061FB1F4802F05EFBAB682E4ABC
:206420005B684FF0000940464946E7FB0301002304F0CAFE2B68284A044649464046E7FB31
:206440000301002304F0C0FE42F2107201460092234644F620622E4802F03EFB3EE72D4874
:2064600002F03AFB22E72C4907E72C4905E72C49BAE72B4901E72849B6E72849B4E700BFDD
:20648000F90C012080CA00004CD3000088CA0000FCC50000FCC90000DCD70000E4D7000027
:2064A000FA0C01204CCA0000F4C50000A0D3000010D80000CC0C0120E8EF0020F80C012076
:2064C000F70C0120F50C01203CD800009CEF0020C4030020ECEF00200024F400A0030020FA
:2064E00000E100E0C4D80000ECD8000014D900003CD9000064D90000F0080020E00800201C
:20650000ECD7000024CA00002CCA000040420F0078D8000058D80000C8D70000D4D7000079
:20652000CCD7000000127A0010B5204C2369197A29B9626922F07F4222F0FF023ABBA27F33
:206540000132A277DB699847FF220021184805F07DFE184B0222C3F88020BFF34F8FBFF396
:206560006F8F15494FF0FF30C1F80803C3F880210020FBF717FBA3681A7D196901321A7527
:206580008847E06050B1BDE81040FFF735B8627DA177002AD6D09B699847D5E7A077FFF7A0
:2065A0009DFDBDE81040054802F0FEBB9CEF0020B40D012000E100E000100040E0080020AE
:2065C0002DE9F04F2DED028B984B994C1B689948994A5B6BE17D0068984D127803FB0103B3
:2065E00085B02B60002A3BD0E3689A7A8A422ED9207D1A7A90422AD220698279002A40D1B6
:20660000067A227E324343D08D4AC679052717702A686EB9007901280AD15B6803921B79E7
:206620000F2B14BFFF207D20FBF756FFE17D039A844B85481B6819705021FBF7A9FE542326
:20664000A37660BB05B0BDEC028BBDE8F08FFEF7F7FC05B0BDEC028BBDE8F04FFFF764BF27
:206660000F20FBF7CDFB03460F209E69FBF7C8FB2B68826AE17DA3F287239B1B9B1A2B60EB
:20668000B2E7027A0AB10029BED0A27E522A71D02868FEF7B3FC5223A3760028D2D06B4F50
:2066A000FEF7ACFB3B681B1A002B064666DBDFF8E081D8F800301B1A002B10DB4D20FDF7CA
:2066C000C1FD6349E37D0A88013301320A80E375FFF776FF5F4AD36C0133D364B2E753204B
:2066E000FDF7B0FD5C4802F0F7F95C4A5C495D4802F0F2F95C4802F0EFF923695B4A1B7963
:20670000B4F804B0B2F800A0002B00F08580012B00F08780564F574A022B18BF1746D8F815
:206720000030DFF87081544C544A4FF00009F31A40464946E4FB0301002304F045FD2B68EA
:206740000190F61A404649464C4A0023E4FB060104F03AFD3B465A4651460090484802F0EF
:20676000BBF9FEF76DFCFFF7DFFE3A4A936C0133936467E7227E002A8AD045E75820FDF77C
:2067800061FD354802F0A8F9344A3549354802F0A3F9354802F0A0F9344A2369B2F8009038
:2067A0001B79A28808EE102A002B37D0012B3AD02F49304A022B0CBF884690463B68DFF87B
:2067C000D4A02D4F2D4A4FF0000BF31A50465946E7FB0301002304F0F7FC2B680190F61AA2
:2067E00050465946254A0023E7FB060104F0ECFC494618EE102A00904346224802F06CF964
:20680000A3685A7D1A75FEF71BFCFFF78DFE114A536C0133536415E71B4F80E7DFF86880E9
:20682000CCE71A4F7BE7DFF86480C7E7140D01209CEF002008F00020F80C012000F0002037
:20684000B60E0120B00D0120B40D0120F8EF0020D40C01204C0D0120E8C900004CD3000041
:20686000F8C90000FCC50000FCC90000CC0C0120B4CF0000C0CF000040420F000024F4001D
:2068800064D7000028D700009CCF0000A8CF000004F0002000127A002DE9F04F2DED028B40
:2068A000A34CA4482369A4499A79002385B003700B70002A5BD14520FDF7C4FCDFF8C0A283
:2068C000E37DDAF80020DFF8BC929C4F506BDFF8B882D9F800103A88994D0133DBB200FB45
:2068E000031198F80000E375013229603A80002841D0E1688A7A9A4230D9207D0A7A9042C8
:206900002CD220698279002A46D1067A227E32434AD08C4AC6794FF0050C82F800C02A68D4
